{
  "address": "0xB0D02c3025068D889E3a6d77ed48a9F7062bE153",
  "abi": [
    {
      "inputs": [
        {
          "internalType": "address",
          "name": "target",
          "type": "address"
        }
      ],
      "name": "AddressEmptyCode",
      "type": "error"
    },
    {
      "inputs": [
        {
          "internalType": "address",
          "name": "implementation",
          "type": "address"
        }
      ],
      "name": "ERC1967InvalidImplementation",
      "type": "error"
    },
    {
      "inputs": [],
      "name": "ERC1967NonPayable",
      "type": "error"
    },
    {
      "inputs": [],
      "name": "FailedInnerCall",
      "type": "error"
    },
    {
      "inputs": [],
      "name": "InvalidInitialization",
      "type": "error"
    },
    {
      "inputs": [],
      "name": "NotEnoughBalance",
      "type": "error"
    },
    {
      "inputs": [],
      "name": "NotInitializing",
      "type": "error"
    },
    {
      "inputs": [
        {
          "internalType": "address",
          "name": "owner",
          "type": "address"
        }
      ],
      "name": "OwnableInvalidOwner",
      "type": "error"
    },
    {
      "inputs": [
        {
          "internalType": "address",
          "name": "account",
          "type": "address"
        }
      ],
      "name": "OwnableUnauthorizedAccount",
      "type": "error"
    },
    {
      "inputs": [],
      "name": "UUPSUnauthorizedCallContext",
      "type": "error"
    },
    {
      "inputs": [
        {
          "internalType": "bytes32",
          "name": "slot",
          "type": "bytes32"
        }
      ],
      "name": "UUPSUnsupportedProxiableUUID",
      "type": "error"
    },
    {
      "anonymous": false,
      "inputs": [
        {
          "indexed": true,
          "internalType": "bytes32",
          "name": "messageId",
          "type": "bytes32"
        },
        {
          "indexed": false,
          "internalType": "uint256",
          "name": "soldierAmount",
          "type": "uint256"
        },
        {
          "indexed": false,
          "internalType": "uint256",
          "name": "fees",
          "type": "uint256"
        }
      ],
      "name": "HorseSent",
      "type": "event"
    },
    {
      "anonymous": false,
      "inputs": [
        {
          "indexed": false,
          "internalType": "uint64",
          "name": "version",
          "type": "uint64"
        }
      ],
      "name": "Initialized",
      "type": "event"
    },
    {
      "anonymous": false,
      "inputs": [
        {
          "indexed": true,
          "internalType": "address",
          "name": "previousOwner",
          "type": "address"
        },
        {
          "indexed": true,
          "internalType": "address",
          "name": "newOwner",
          "type": "address"
        }
      ],
      "name": "OwnershipTransferStarted",
      "type": "event"
    },
    {
      "anonymous": false,
      "inputs": [
        {
          "indexed": true,
          "internalType": "address",
          "name": "previousOwner",
          "type": "address"
        },
        {
          "indexed": true,
          "internalType": "address",
          "name": "newOwner",
          "type": "address"
        }
      ],
      "name": "OwnershipTransferred",
      "type": "event"
    },
    {
      "anonymous": false,
      "inputs": [
        {
          "indexed": true,
          "internalType": "address",
          "name": "implementation",
          "type": "address"
        }
      ],
      "name": "Upgraded",
      "type": "event"
    },
    {
      "inputs": [],
      "name": "UPGRADE_INTERFACE_VERSION",
      "outputs": [
        {
          "internalType": "string",
          "name": "",
          "type": "string"
        }
      ],
      "stateMutability": "view",
      "type": "function"
    },
    {
      "inputs": [],
      "name": "acceptOwnership",
      "outputs": [],
      "stateMutability": "nonpayable",
      "type": "function"
    },
    {
      "inputs": [
        {
          "internalType": "uint256",
          "name": "fundForSoldiers",
          "type": "uint256"
        }
      ],
      "name": "getFee",
      "outputs": [
        {
          "internalType": "uint256",
          "name": "fees",
          "type": "uint256"
        },
        {
          "internalType": "uint256",
          "name": "soldierAmount",
          "type": "uint256"
        }
      ],
      "stateMutability": "view",
      "type": "function"
    },
    {
      "inputs": [
        {
          "internalType": "address",
          "name": "owner_",
          "type": "address"
        },
        {
          "internalType": "address",
          "name": "router_",
          "type": "address"
        },
        {
          "internalType": "address",
          "name": "aggregator_",
          "type": "address"
        },
        {
          "internalType": "uint256",
          "name": "chainSelector_",
          "type": "uint256"
        },
        {
          "internalType": "address",
          "name": "receiver_",
          "type": "address"
        }
      ],
      "name": "initialize",
      "outputs": [],
      "stateMutability": "nonpayable",
      "type": "function"
    },
    {
      "inputs": [],
      "name": "owner",
      "outputs": [
        {
          "internalType": "address",
          "name": "",
          "type": "address"
        }
      ],
      "stateMutability": "view",
      "type": "function"
    },
    {
      "inputs": [],
      "name": "pendingOwner",
      "outputs": [
        {
          "internalType": "address",
          "name": "",
          "type": "address"
        }
      ],
      "stateMutability": "view",
      "type": "function"
    },
    {
      "inputs": [],
      "name": "proxiableUUID",
      "outputs": [
        {
          "internalType": "bytes32",
          "name": "",
          "type": "bytes32"
        }
      ],
      "stateMutability": "view",
      "type": "function"
    },
    {
      "inputs": [],
      "name": "renounceOwnership",
      "outputs": [],
      "stateMutability": "nonpayable",
      "type": "function"
    },
    {
      "inputs": [
        {
          "internalType": "uint256",
          "name": "fundForSoldiers",
          "type": "uint256"
        }
      ],
      "name": "sendHorse",
      "outputs": [
        {
          "internalType": "bytes32",
          "name": "messageId",
          "type": "bytes32"
        }
      ],
      "stateMutability": "payable",
      "type": "function"
    },
    {
      "inputs": [
        {
          "internalType": "address",
          "name": "newOwner",
          "type": "address"
        }
      ],
      "name": "transferOwnership",
      "outputs": [],
      "stateMutability": "nonpayable",
      "type": "function"
    },
    {
      "inputs": [
        {
          "internalType": "address",
          "name": "newImplementation",
          "type": "address"
        },
        {
          "internalType": "bytes",
          "name": "data",
          "type": "bytes"
        }
      ],
      "name": "upgradeToAndCall",
      "outputs": [],
      "stateMutability": "payable",
      "type": "function"
    }
  ],
  "transactionHash": "0x98a6e1e1e010fd854692d274655af0dc8fbbcc1d2915272e850966225c57ddb8",
  "args": [],
  "numDeployments": 1,
  "solcInputHash": "072036421b95051681b93d5e2153ae28",
  "bytecode": "0x60a06040523073ffffffffffffffffffffffffffffffffffffffff1660809073ffffffffffffffffffffffffffffffffffffffff16815250348015604257600080fd5b5060805161244961006c60003960008181610f6d01528181610fc2015261117d01526124496000f3fe60806040526004361061009c5760003560e01c806379ba50971161006457806379ba5097146101585780638da5cb5b1461016f578063ad3cb1cc1461019a578063e30c3978146101c5578063f2fde38b146101f0578063fcee45f4146102195761009c565b80634f1ef286146100a157806352d1902d146100bd578063530b97a4146100e8578063715018a61461011157806374af8ff514610128575b600080fd5b6100bb60048036038101906100b691906119e5565b610257565b005b3480156100c957600080fd5b506100d2610276565b6040516100df9190611a5a565b60405180910390f35b3480156100f457600080fd5b5061010f600480360381019061010a9190611aab565b6102a9565b005b34801561011d57600080fd5b5061012661053d565b005b610142600480360381019061013d9190611b26565b610551565b60405161014f9190611a5a565b60405180910390f35b34801561016457600080fd5b5061016d610a00565b005b34801561017b57600080fd5b50610184610a8f565b6040516101919190611b62565b60405180910390f35b3480156101a657600080fd5b506101af610ac7565b6040516101bc9190611bfc565b60405180910390f35b3480156101d157600080fd5b506101da610b00565b6040516101e79190611b62565b60405180910390f35b3480156101fc57600080fd5b5061021760048036038101906102129190611c1e565b610b38565b005b34801561022557600080fd5b50610240600480360381019061023b9190611b26565b610bf4565b60405161024e929190611c5a565b60405180910390f35b61025f610f6b565b61026882611051565b610272828261105c565b5050565b600061028061117b565b7f360894a13ba1a3210667c828492db98dca3e2076cc3735a920a3ca505d382bbc60001b905090565b60006102b3611202565b905060008160000160089054906101000a900460ff1615905060008260000160009054906101000a900467ffffffffffffffff1690506000808267ffffffffffffffff161480156103015750825b9050600060018367ffffffffffffffff16148015610336575060003073ffffffffffffffffffffffffffffffffffffffff163b145b905081158015610344575080155b1561037b576040517ff92ee8a900000000000000000000000000000000000000000000000000000000815260040160405180910390fd5b60018560000160006101000a81548167ffffffffffffffff021916908367ffffffffffffffff16021790555083156103cb5760018560000160086101000a81548160ff0219169083151502179055505b6103d48a61122a565b60006103de61126a565b9050898160000160006101000a81548173ffffffffffffffffffffffffffffffffffffffff021916908373ffffffffffffffffffffffffffffffffffffffff160217905550888160010160006101000a81548173ffffffffffffffffffffffffffffffffffffffff021916908373ffffffffffffffffffffffffffffffffffffffff160217905550878160010160146101000a81548167ffffffffffffffff021916908367ffffffffffffffff160217905550868160020160006101000a81548173ffffffffffffffffffffffffffffffffffffffff021916908373ffffffffffffffffffffffffffffffffffffffff1602179055505083156105315760008560000160086101000a81548160ff0219169083151502179055507fc7f505b2f371ae2175ee4913f4499e1f2633a7b5936321eed1cdaeb6115181d260016040516105289190611cdc565b60405180910390a15b50505050505050505050565b610545611292565b61054f600061122a565b565b600061055b611292565b600061056561126a565b60010160009054906101000a900473ffffffffffffffffffffffffffffffffffffffff1673ffffffffffffffffffffffffffffffffffffffff1663feaf968c6040518163ffffffff1660e01b815260040160a060405180830381865afa1580156105d3573d6000803e3d6000fd5b505050506040513d601f19601f820116820180604052508101906105f79190611d84565b505050915050600061060761126a565b60010160009054906101000a900473ffffffffffffffffffffffffffffffffffffffff1673ffffffffffffffffffffffffffffffffffffffff1663313ce5676040518163ffffffff1660e01b8152600401602060405180830381865afa158015610675573d6000803e3d6000fd5b505050506040513d601f19601f820116820180604052508101906106999190611e38565b90506000670de0b6b3a764000082600a6106b39190611fc7565b6106bd9190612012565b83866106c99190612012565b6106d39190612083565b905060006106df61126a565b60020160009054906101000a900473ffffffffffffffffffffffffffffffffffffffff169050600061070f61126a565b60010160149054906101000a900467ffffffffffffffff1690506000468460405160200161073e929190611c5a565b604051602081830303815290604052905060006040518060a001604052808560405160200161076d9190611b62565b6040516020818303038152906040528152602001838152602001600067ffffffffffffffff8111156107a2576107a16118ba565b5b6040519080825280602002602001820160405280156107db57816020015b6107c86117fd565b8152602001906001900390816107c05790505b508152602001600073ffffffffffffffffffffffffffffffffffffffff168152602001610818604051806020016040528062030d40815250611319565b8152509050600061082761126a565b60000160009054906101000a900473ffffffffffffffffffffffffffffffffffffffff1673ffffffffffffffffffffffffffffffffffffffff166320487ded85846040518363ffffffff1660e01b815260040161088592919061229f565b602060405180830381865afa1580156108a2573d6000803e3d6000fd5b505050506040513d601f19601f820116820180604052508101906108c691906122cf565b9050808a346108d591906122fc565b101561090d576040517fad3a8b9e00000000000000000000000000000000000000000000000000000000815260040160405180910390fd5b61091561126a565b60000160009054906101000a900473ffffffffffffffffffffffffffffffffffffffff1673ffffffffffffffffffffffffffffffffffffffff166396f4e9f98286856040518463ffffffff1660e01b815260040161097492919061229f565b60206040518083038185885af1158015610992573d6000803e3d6000fd5b50505050506040513d601f19601f820116820180604052508101906109b7919061235c565b9850887faf4d8a84b234410af70315b833c476a761b33559f391cf26d8f3bf7baa5f12ee87836040516109eb929190611c5a565b60405180910390a25050505050505050919050565b6000610a0a611398565b90508073ffffffffffffffffffffffffffffffffffffffff16610a2b610b00565b73ffffffffffffffffffffffffffffffffffffffff1614610a8357806040517f118cdaa7000000000000000000000000000000000000000000000000000000008152600401610a7a9190611b62565b60405180910390fd5b610a8c8161122a565b50565b600080610a9a6113a0565b90508060000160009054906101000a900473ffffffffffffffffffffffffffffffffffffffff1691505090565b6040518060400160405280600581526020017f352e302e3000000000000000000000000000000000000000000000000000000081525081565b600080610b0b6113c8565b90508060000160009054906101000a900473ffffffffffffffffffffffffffffffffffffffff1691505090565b610b40611292565b6000610b4a6113c8565b9050818160000160006101000a81548173ffffffffffffffffffffffffffffffffffffffff021916908373ffffffffffffffffffffffffffffffffffffffff1602179055508173ffffffffffffffffffffffffffffffffffffffff16610bae610a8f565b73ffffffffffffffffffffffffffffffffffffffff167f38d16b8cac22d99fc7c124b9cd0de2d3fa1faef420bfe791d8c362d765e2270060405160405180910390a35050565b6000806000610c0161126a565b60010160009054906101000a900473ffffffffffffffffffffffffffffffffffffffff1673ffffffffffffffffffffffffffffffffffffffff1663feaf968c6040518163ffffffff1660e01b815260040160a060405180830381865afa158015610c6f573d6000803e3d6000fd5b505050506040513d601f19601f82011682018060405250810190610c939190611d84565b5050509150506000610ca361126a565b60010160009054906101000a900473ffffffffffffffffffffffffffffffffffffffff1673ffffffffffffffffffffffffffffffffffffffff1663313ce5676040518163ffffffff1660e01b8152600401602060405180830381865afa158015610d11573d6000803e3d6000fd5b505050506040513d601f19601f82011682018060405250810190610d359190611e38565b9050670de0b6b3a764000081600a610d4d9190611fc7565b610d579190612012565b8286610d639190612012565b610d6d9190612083565b92506000610d7961126a565b60020160009054906101000a900473ffffffffffffffffffffffffffffffffffffffff1690506000610da961126a565b60010160149054906101000a900467ffffffffffffffff16905060004686604051602001610dd8929190611c5a565b604051602081830303815290604052905060006040518060a0016040528085604051602001610e079190611b62565b6040516020818303038152906040528152602001838152602001600067ffffffffffffffff811115610e3c57610e3b6118ba565b5b604051908082528060200260200182016040528015610e7557816020015b610e626117fd565b815260200190600190039081610e5a5790505b508152602001600073ffffffffffffffffffffffffffffffffffffffff168152602001610eb2604051806020016040528062030d40815250611319565b8152509050610ebf61126a565b60000160009054906101000a900473ffffffffffffffffffffffffffffffffffffffff1673ffffffffffffffffffffffffffffffffffffffff166320487ded84836040518363ffffffff1660e01b8152600401610f1d92919061229f565b602060405180830381865afa158015610f3a573d6000803e3d6000fd5b505050506040513d601f19601f82011682018060405250810190610f5e91906122cf565b9750505050505050915091565b7f000000000000000000000000000000000000000000000000000000000000000073ffffffffffffffffffffffffffffffffffffffff163073ffffffffffffffffffffffffffffffffffffffff16148061101857507f000000000000000000000000000000000000000000000000000000000000000073ffffffffffffffffffffffffffffffffffffffff16610fff6113f0565b73ffffffffffffffffffffffffffffffffffffffff1614155b1561104f576040517fe07c8dba00000000000000000000000000000000000000000000000000000000815260040160405180910390fd5b565b611059611292565b50565b8173ffffffffffffffffffffffffffffffffffffffff166352d1902d6040518163ffffffff1660e01b8152600401602060405180830381865afa9250505080156110c457506040513d601f19601f820116820180604052508101906110c1919061235c565b60015b61110557816040517f4c9c8ce30000000000000000000000000000000000000000000000000000000081526004016110fc9190611b62565b60405180910390fd5b7f360894a13ba1a3210667c828492db98dca3e2076cc3735a920a3ca505d382bbc60001b811461116c57806040517faa1d49a40000000000000000000000000000000000000000000000000000000081526004016111639190611a5a565b60405180910390fd5b6111768383611447565b505050565b7f000000000000000000000000000000000000000000000000000000000000000073ffffffffffffffffffffffffffffffffffffffff163073ffffffffffffffffffffffffffffffffffffffff1614611200576040517fe07c8dba00000000000000000000000000000000000000000000000000000000815260040160405180910390fd5b565b60007ff0c57e16840df040f15088dc2f81fe391c3923bec73e23a9662efc9c229c6a00905090565b60006112346113c8565b90508060000160006101000a81549073ffffffffffffffffffffffffffffffffffffffff0219169055611266826114ba565b5050565b60007fe27341574ccce45f37dcd0b599bb3930a0505a29c9f7d7964beef8d73580ce00905090565b61129a611398565b73ffffffffffffffffffffffffffffffffffffffff166112b8610a8f565b73ffffffffffffffffffffffffffffffffffffffff1614611317576112db611398565b6040517f118cdaa700000000000000000000000000000000000000000000000000000000815260040161130e9190611b62565b60405180910390fd5b565b60606397a657c960e01b8260405160240161133491906123a5565b604051602081830303815290604052907bffffffffffffffffffffffffffffffffffffffffffffffffffffffff19166020820180517bffffffffffffffffffffffffffffffffffffffffffffffffffffffff83818316178352505050509050919050565b600033905090565b60007f9016d09d72d40fdae2fd8ceac6b6234c7706214fd39c1cd1e609a0528c199300905090565b60007f237e158222e3e6968b72b9db0d8043aacf074ad9f650f0d1606b4d82ee432c00905090565b600061141e7f360894a13ba1a3210667c828492db98dca3e2076cc3735a920a3ca505d382bbc60001b611591565b60000160009054906101000a900473ffffffffffffffffffffffffffffffffffffffff16905090565b6114508261159b565b8173ffffffffffffffffffffffffffffffffffffffff167fbc7cd75a20ee27fd9adebab32041f755214dbc6bffa90cc0225b39da2e5c2d3b60405160405180910390a26000815111156114ad576114a78282611668565b506114b6565b6114b56116ec565b5b5050565b60006114c46113a0565b905060008160000160009054906101000a900473ffffffffffffffffffffffffffffffffffffffff169050828260000160006101000a81548173ffffffffffffffffffffffffffffffffffffffff021916908373ffffffffffffffffffffffffffffffffffffffff1602179055508273ffffffffffffffffffffffffffffffffffffffff168173ffffffffffffffffffffffffffffffffffffffff167f8be0079c531659141344cd1fd0a4f28419497f9722a3daafe3b4186f6b6457e060405160405180910390a3505050565b6000819050919050565b60008173ffffffffffffffffffffffffffffffffffffffff163b036115f757806040517f4c9c8ce30000000000000000000000000000000000000000000000000000000081526004016115ee9190611b62565b60405180910390fd5b806116247f360894a13ba1a3210667c828492db98dca3e2076cc3735a920a3ca505d382bbc60001b611591565b60000160006101000a81548173ffffffffffffffffffffffffffffffffffffffff021916908373ffffffffffffffffffffffffffffffffffffffff16021790555050565b60606000808473ffffffffffffffffffffffffffffffffffffffff168460405161169291906123fc565b600060405180830381855af49150503d80600081146116cd576040519150601f19603f3d011682016040523d82523d6000602084013e6116d2565b606091505b50915091506116e2858383611729565b9250505092915050565b6000341115611727576040517fb398979f00000000000000000000000000000000000000000000000000000000815260040160405180910390fd5b565b60608261173e57611739826117b8565b6117b0565b60008251148015611766575060008473ffffffffffffffffffffffffffffffffffffffff163b145b156117a857836040517f9996b31500000000000000000000000000000000000000000000000000000000815260040161179f9190611b62565b60405180910390fd5b8190506117b1565b5b9392505050565b6000815111156117cb5780518082602001fd5b6040517f1425ea4200000000000000000000000000000000000000000000000000000000815260040160405180910390fd5b6040518060400160405280600073ffffffffffffffffffffffffffffffffffffffff168152602001600081525090565b6000604051905090565b600080fd5b600080fd5b600073ffffffffffffffffffffffffffffffffffffffff82169050919050565b600061186c82611841565b9050919050565b61187c81611861565b811461188757600080fd5b50565b60008135905061189981611873565b92915050565b600080fd5b600080fd5b6000601f19601f8301169050919050565b7f4e487b7100000000000000000000000000000000000000000000000000000000600052604160045260246000fd5b6118f2826118a9565b810181811067ffffffffffffffff82111715611911576119106118ba565b5b80604052505050565b600061192461182d565b905061193082826118e9565b919050565b600067ffffffffffffffff8211156119505761194f6118ba565b5b611959826118a9565b9050602081019050919050565b82818337600083830152505050565b600061198861198384611935565b61191a565b9050828152602081018484840111156119a4576119a36118a4565b5b6119af848285611966565b509392505050565b600082601f8301126119cc576119cb61189f565b5b81356119dc848260208601611975565b91505092915050565b600080604083850312156119fc576119fb611837565b5b6000611a0a8582860161188a565b925050602083013567ffffffffffffffff811115611a2b57611a2a61183c565b5b611a37858286016119b7565b9150509250929050565b6000819050919050565b611a5481611a41565b82525050565b6000602082019050611a6f6000830184611a4b565b92915050565b6000819050919050565b611a8881611a75565b8114611a9357600080fd5b50565b600081359050611aa581611a7f565b92915050565b600080600080600060a08688031215611ac757611ac6611837565b5b6000611ad58882890161188a565b9550506020611ae68882890161188a565b9450506040611af78882890161188a565b9350506060611b0888828901611a96565b9250506080611b198882890161188a565b9150509295509295909350565b600060208284031215611b3c57611b3b611837565b5b6000611b4a84828501611a96565b91505092915050565b611b5c81611861565b82525050565b6000602082019050611b776000830184611b53565b92915050565b600081519050919050565b600082825260208201905092915050565b60005b83811015611bb7578082015181840152602081019050611b9c565b60008484015250505050565b6000611bce82611b7d565b611bd88185611b88565b9350611be8818560208601611b99565b611bf1816118a9565b840191505092915050565b60006020820190508181036000830152611c168184611bc3565b905092915050565b600060208284031215611c3457611c33611837565b5b6000611c428482850161188a565b91505092915050565b611c5481611a75565b82525050565b6000604082019050611c6f6000830185611c4b565b611c7c6020830184611c4b565b9392505050565b6000819050919050565b600067ffffffffffffffff82169050919050565b6000819050919050565b6000611cc6611cc1611cbc84611c83565b611ca1565b611c8d565b9050919050565b611cd681611cab565b82525050565b6000602082019050611cf16000830184611ccd565b92915050565b600069ffffffffffffffffffff82169050919050565b611d1681611cf7565b8114611d2157600080fd5b50565b600081519050611d3381611d0d565b92915050565b6000819050919050565b611d4c81611d39565b8114611d5757600080fd5b50565b600081519050611d6981611d43565b92915050565b600081519050611d7e81611a7f565b92915050565b600080600080600060a08688031215611da057611d9f611837565b5b6000611dae88828901611d24565b9550506020611dbf88828901611d5a565b9450506040611dd088828901611d6f565b9350506060611de188828901611d6f565b9250506080611df288828901611d24565b9150509295509295909350565b600060ff82169050919050565b611e1581611dff565b8114611e2057600080fd5b50565b600081519050611e3281611e0c565b92915050565b600060208284031215611e4e57611e4d611837565b5b6000611e5c84828501611e23565b91505092915050565b7f4e487b7100000000000000000000000000000000000000000000000000000000600052601160045260246000fd5b60008160011c9050919050565b6000808291508390505b6001851115611eeb57808604811115611ec757611ec6611e65565b5b6001851615611ed65780820291505b8081029050611ee485611e94565b9450611eab565b94509492505050565b600082611f045760019050611fc0565b81611f125760009050611fc0565b8160018114611f285760028114611f3257611f61565b6001915050611fc0565b60ff841115611f4457611f43611e65565b5b8360020a915084821115611f5b57611f5a611e65565b5b50611fc0565b5060208310610133831016604e8410600b8410161715611f965782820a905083811115611f9157611f90611e65565b5b611fc0565b611fa38484846001611ea1565b92509050818404811115611fba57611fb9611e65565b5b81810290505b9392505050565b6000611fd282611a75565b9150611fdd83611dff565b925061200a7fffffffffffffffffffffffffffffffffffffffffffffffffffffffffffffffff8484611ef4565b905092915050565b600061201d82611a75565b915061202883611a75565b925082820261203681611a75565b9150828204841483151761204d5761204c611e65565b5b5092915050565b7f4e487b7100000000000000000000000000000000000000000000000000000000600052601260045260246000fd5b600061208e82611a75565b915061209983611a75565b9250826120a9576120a8612054565b5b828204905092915050565b6120bd81611c8d565b82525050565b600081519050919050565b600082825260208201905092915050565b60006120ea826120c3565b6120f481856120ce565b9350612104818560208601611b99565b61210d816118a9565b840191505092915050565b600081519050919050565b600082825260208201905092915050565b6000819050602082019050919050565b61214d81611861565b82525050565b61215c81611a75565b82525050565b6040820160008201516121786000850182612144565b50602082015161218b6020850182612153565b50505050565b600061219d8383612162565b60408301905092915050565b6000602082019050919050565b60006121c182612118565b6121cb8185612123565b93506121d683612134565b8060005b838110156122075781516121ee8882612191565b97506121f9836121a9565b9250506001810190506121da565b5085935050505092915050565b600060a083016000830151848203600086015261223182826120df565b9150506020830151848203602086015261224b82826120df565b9150506040830151848203604086015261226582826121b6565b915050606083015161227a6060860182612144565b506080830151848203608086015261229282826120df565b9150508091505092915050565b60006040820190506122b460008301856120b4565b81810360208301526122c68184612214565b90509392505050565b6000602082840312156122e5576122e4611837565b5b60006122f384828501611d6f565b91505092915050565b600061230782611a75565b915061231283611a75565b925082820390508181111561232a57612329611e65565b5b92915050565b61233981611a41565b811461234457600080fd5b50565b60008151905061235681612330565b92915050565b60006020828403121561237257612371611837565b5b600061238084828501612347565b91505092915050565b60208201600082015161239f6000850182612153565b50505050565b60006020820190506123ba6000830184612389565b92915050565b600081905092915050565b60006123d6826120c3565b6123e081856123c0565b93506123f0818560208601611b99565b80840191505092915050565b600061240882846123cb565b91508190509291505056fea264697066735822122062284939d8f0beb87eac9511f3cc420ed85a24701ee09e6f5cf06bc1c840945964736f6c63430008190033",
  "devdoc": {
    "errors": {
      "AddressEmptyCode(address)": [
        {
          "details": "There's no code at `target` (it is not a contract)."
        }
      ],
      "ERC1967InvalidImplementation(address)": [
        {
          "details": "The `implementation` of the proxy is invalid."
        }
      ],
      "ERC1967NonPayable()": [
        {
          "details": "An upgrade function sees `msg.value > 0` that may be lost."
        }
      ],
      "FailedInnerCall()": [
        {
          "details": "A call to an address target failed. The target may have reverted."
        }
      ],
      "InvalidInitialization()": [
        {
          "details": "The contract is already initialized."
        }
      ],
      "NotInitializing()": [
        {
          "details": "The contract is not initializing."
        }
      ],
      "OwnableInvalidOwner(address)": [
        {
          "details": "The owner is not a valid owner account. (eg. `address(0)`)"
        }
      ],
      "OwnableUnauthorizedAccount(address)": [
        {
          "details": "The caller account is not authorized to perform an operation."
        }
      ],
      "UUPSUnauthorizedCallContext()": [
        {
          "details": "The call is from an unauthorized context."
        }
      ],
      "UUPSUnsupportedProxiableUUID(bytes32)": [
        {
          "details": "The storage `slot` is unsupported as a UUID."
        }
      ]
    },
    "events": {
      "Initialized(uint64)": {
        "details": "Triggered when the contract has been initialized or reinitialized."
      },
      "Upgraded(address)": {
        "details": "Emitted when the implementation is upgraded."
      }
    },
    "kind": "dev",
    "methods": {
      "acceptOwnership()": {
        "details": "The new owner accepts the ownership transfer."
      },
      "owner()": {
        "details": "Returns the address of the current owner."
      },
      "pendingOwner()": {
        "details": "Returns the address of the pending owner."
      },
      "proxiableUUID()": {
        "details": "Implementation of the ERC1822 {proxiableUUID} function. This returns the storage slot used by the implementation. It is used to validate the implementation's compatibility when performing an upgrade. IMPORTANT: A proxy pointing at a proxiable contract should not be considered proxiable itself, because this risks bricking a proxy that upgrades to it, by delegating to itself until out of gas. Thus it is critical that this function revert if invoked through a proxy. This is guaranteed by the `notDelegated` modifier."
      },
      "renounceOwnership()": {
        "details": "Leaves the contract without owner. It will not be possible to call `onlyOwner` functions. Can only be called by the current owner. NOTE: Renouncing ownership will leave the contract without an owner, thereby disabling any functionality that is only available to the owner."
      },
      "sendHorse(uint256)": {
        "returns": {
          "messageId": "The ID of the message that was sent."
        }
      },
      "transferOwnership(address)": {
        "details": "Starts the ownership transfer of the contract to a new account. Replaces the pending transfer if there is one. Can only be called by the current owner."
      },
      "upgradeToAndCall(address,bytes)": {
        "custom:oz-upgrades-unsafe-allow-reachable": "delegatecall",
        "details": "Upgrade the implementation of the proxy to `newImplementation`, and subsequently execute the function call encoded in `data`. Calls {_authorizeUpgrade}. Emits an {Upgraded} event."
      }
    },
    "version": 1
  },
  "userdoc": {
    "kind": "user",
    "methods": {
      "sendHorse(uint256)": {
        "notice": "Sends data to receiver on the destination chain."
      }
    },
    "version": 1
  },
  "storageLayout": {
    "storage": [],
    "types": null
  }
}