{
  "address": "0x0f2446405956D8301972616D81b0Ac23D82f638A",
  "abi": [
    {
      "inputs": [
        {
          "internalType": "address",
          "name": "target",
          "type": "address"
        }
      ],
      "name": "AddressEmptyCode",
      "type": "error"
    },
    {
      "inputs": [
        {
          "internalType": "address",
          "name": "implementation",
          "type": "address"
        }
      ],
      "name": "ERC1967InvalidImplementation",
      "type": "error"
    },
    {
      "inputs": [],
      "name": "ERC1967NonPayable",
      "type": "error"
    },
    {
      "inputs": [],
      "name": "FailedInnerCall",
      "type": "error"
    },
    {
      "inputs": [],
      "name": "InvalidInitialization",
      "type": "error"
    },
    {
      "inputs": [],
      "name": "NotEnoughBalance",
      "type": "error"
    },
    {
      "inputs": [],
      "name": "NotInitializing",
      "type": "error"
    },
    {
      "inputs": [
        {
          "internalType": "address",
          "name": "owner",
          "type": "address"
        }
      ],
      "name": "OwnableInvalidOwner",
      "type": "error"
    },
    {
      "inputs": [
        {
          "internalType": "address",
          "name": "account",
          "type": "address"
        }
      ],
      "name": "OwnableUnauthorizedAccount",
      "type": "error"
    },
    {
      "inputs": [],
      "name": "UUPSUnauthorizedCallContext",
      "type": "error"
    },
    {
      "inputs": [
        {
          "internalType": "bytes32",
          "name": "slot",
          "type": "bytes32"
        }
      ],
      "name": "UUPSUnsupportedProxiableUUID",
      "type": "error"
    },
    {
      "anonymous": false,
      "inputs": [
        {
          "indexed": true,
          "internalType": "bytes32",
          "name": "messageId",
          "type": "bytes32"
        },
        {
          "indexed": false,
          "internalType": "uint256",
          "name": "soldierAmount",
          "type": "uint256"
        },
        {
          "indexed": false,
          "internalType": "uint256",
          "name": "fees",
          "type": "uint256"
        }
      ],
      "name": "HorseSent",
      "type": "event"
    },
    {
      "anonymous": false,
      "inputs": [
        {
          "indexed": false,
          "internalType": "uint64",
          "name": "version",
          "type": "uint64"
        }
      ],
      "name": "Initialized",
      "type": "event"
    },
    {
      "anonymous": false,
      "inputs": [
        {
          "indexed": true,
          "internalType": "address",
          "name": "previousOwner",
          "type": "address"
        },
        {
          "indexed": true,
          "internalType": "address",
          "name": "newOwner",
          "type": "address"
        }
      ],
      "name": "OwnershipTransferStarted",
      "type": "event"
    },
    {
      "anonymous": false,
      "inputs": [
        {
          "indexed": true,
          "internalType": "address",
          "name": "previousOwner",
          "type": "address"
        },
        {
          "indexed": true,
          "internalType": "address",
          "name": "newOwner",
          "type": "address"
        }
      ],
      "name": "OwnershipTransferred",
      "type": "event"
    },
    {
      "anonymous": false,
      "inputs": [
        {
          "indexed": true,
          "internalType": "address",
          "name": "implementation",
          "type": "address"
        }
      ],
      "name": "Upgraded",
      "type": "event"
    },
    {
      "inputs": [],
      "name": "UPGRADE_INTERFACE_VERSION",
      "outputs": [
        {
          "internalType": "string",
          "name": "",
          "type": "string"
        }
      ],
      "stateMutability": "view",
      "type": "function"
    },
    {
      "inputs": [],
      "name": "acceptOwnership",
      "outputs": [],
      "stateMutability": "nonpayable",
      "type": "function"
    },
    {
      "inputs": [
        {
          "internalType": "address",
          "name": "owner_",
          "type": "address"
        },
        {
          "internalType": "address",
          "name": "router_",
          "type": "address"
        },
        {
          "internalType": "address",
          "name": "aggregator_",
          "type": "address"
        },
        {
          "internalType": "uint256",
          "name": "chainSelector_",
          "type": "uint256"
        },
        {
          "internalType": "address",
          "name": "receiver_",
          "type": "address"
        }
      ],
      "name": "initialize",
      "outputs": [],
      "stateMutability": "nonpayable",
      "type": "function"
    },
    {
      "inputs": [],
      "name": "owner",
      "outputs": [
        {
          "internalType": "address",
          "name": "",
          "type": "address"
        }
      ],
      "stateMutability": "view",
      "type": "function"
    },
    {
      "inputs": [],
      "name": "pendingOwner",
      "outputs": [
        {
          "internalType": "address",
          "name": "",
          "type": "address"
        }
      ],
      "stateMutability": "view",
      "type": "function"
    },
    {
      "inputs": [],
      "name": "proxiableUUID",
      "outputs": [
        {
          "internalType": "bytes32",
          "name": "",
          "type": "bytes32"
        }
      ],
      "stateMutability": "view",
      "type": "function"
    },
    {
      "inputs": [],
      "name": "renounceOwnership",
      "outputs": [],
      "stateMutability": "nonpayable",
      "type": "function"
    },
    {
      "inputs": [
        {
          "internalType": "uint256",
          "name": "fundForSoldiers",
          "type": "uint256"
        }
      ],
      "name": "sendHorse",
      "outputs": [
        {
          "internalType": "bytes32",
          "name": "messageId",
          "type": "bytes32"
        }
      ],
      "stateMutability": "payable",
      "type": "function"
    },
    {
      "inputs": [
        {
          "internalType": "address",
          "name": "newOwner",
          "type": "address"
        }
      ],
      "name": "transferOwnership",
      "outputs": [],
      "stateMutability": "nonpayable",
      "type": "function"
    },
    {
      "inputs": [
        {
          "internalType": "address",
          "name": "newImplementation",
          "type": "address"
        },
        {
          "internalType": "bytes",
          "name": "data",
          "type": "bytes"
        }
      ],
      "name": "upgradeToAndCall",
      "outputs": [],
      "stateMutability": "payable",
      "type": "function"
    }
  ],
  "transactionHash": "0x39911c58e83ee2fe66f8e1a68f089d64bc05d8334570bf18f3004106087a8816",
  "args": [],
  "numDeployments": 1,
  "solcInputHash": "e59bac4a506b824d374b05560553bdaf",
  "bytecode": "0x60a06040523073ffffffffffffffffffffffffffffffffffffffff1660809073ffffffffffffffffffffffffffffffffffffffff16815250348015604257600080fd5b5060805161207661006c60003960008181610b9a01528181610bef0152610daa01526120766000f3fe6080604052600436106100915760003560e01c806379ba50971161005957806379ba50971461014d5780638da5cb5b14610164578063ad3cb1cc1461018f578063e30c3978146101ba578063f2fde38b146101e557610091565b80634f1ef2861461009657806352d1902d146100b2578063530b97a4146100dd578063715018a61461010657806374af8ff51461011d575b600080fd5b6100b060048036038101906100ab9190611612565b61020e565b005b3480156100be57600080fd5b506100c761022d565b6040516100d49190611687565b60405180910390f35b3480156100e957600080fd5b5061010460048036038101906100ff91906116d8565b610260565b005b34801561011257600080fd5b5061011b6104f4565b005b61013760048036038101906101329190611753565b610508565b6040516101449190611687565b60405180910390f35b34801561015957600080fd5b506101626109a4565b005b34801561017057600080fd5b50610179610a33565b604051610186919061178f565b60405180910390f35b34801561019b57600080fd5b506101a4610a6b565b6040516101b19190611829565b60405180910390f35b3480156101c657600080fd5b506101cf610aa4565b6040516101dc919061178f565b60405180910390f35b3480156101f157600080fd5b5061020c6004803603810190610207919061184b565b610adc565b005b610216610b98565b61021f82610c7e565b6102298282610c89565b5050565b6000610237610da8565b7f360894a13ba1a3210667c828492db98dca3e2076cc3735a920a3ca505d382bbc60001b905090565b600061026a610e2f565b905060008160000160089054906101000a900460ff1615905060008260000160009054906101000a900467ffffffffffffffff1690506000808267ffffffffffffffff161480156102b85750825b9050600060018367ffffffffffffffff161480156102ed575060003073ffffffffffffffffffffffffffffffffffffffff163b145b9050811580156102fb575080155b15610332576040517ff92ee8a900000000000000000000000000000000000000000000000000000000815260040160405180910390fd5b60018560000160006101000a81548167ffffffffffffffff021916908367ffffffffffffffff16021790555083156103825760018560000160086101000a81548160ff0219169083151502179055505b61038b8a610e57565b6000610395610e97565b9050898160000160006101000a81548173ffffffffffffffffffffffffffffffffffffffff021916908373ffffffffffffffffffffffffffffffffffffffff160217905550888160010160006101000a81548173ffffffffffffffffffffffffffffffffffffffff021916908373ffffffffffffffffffffffffffffffffffffffff160217905550878160010160146101000a81548167ffffffffffffffff021916908367ffffffffffffffff160217905550868160020160006101000a81548173ffffffffffffffffffffffffffffffffffffffff021916908373ffffffffffffffffffffffffffffffffffffffff1602179055505083156104e85760008560000160086101000a81548160ff0219169083151502179055507fc7f505b2f371ae2175ee4913f4499e1f2633a7b5936321eed1cdaeb6115181d260016040516104df91906118d1565b60405180910390a15b50505050505050505050565b6104fc610ebf565b6105066000610e57565b565b6000610512610ebf565b600061051c610e97565b60010160009054906101000a900473ffffffffffffffffffffffffffffffffffffffff1673ffffffffffffffffffffffffffffffffffffffff1663feaf968c6040518163ffffffff1660e01b815260040160a060405180830381865afa15801561058a573d6000803e3d6000fd5b505050506040513d601f19601f820116820180604052508101906105ae9190611979565b50505091505060006105be610e97565b60010160009054906101000a900473ffffffffffffffffffffffffffffffffffffffff1673ffffffffffffffffffffffffffffffffffffffff1663313ce5676040518163ffffffff1660e01b8152600401602060405180830381865afa15801561062c573d6000803e3d6000fd5b505050506040513d601f19601f820116820180604052508101906106509190611a2d565b905060008282600a6106629190611bbc565b8661066d9190611c07565b6106779190611c78565b90506000610683610e97565b60020160009054906101000a900473ffffffffffffffffffffffffffffffffffffffff16905060006106b3610e97565b60010160149054906101000a900467ffffffffffffffff169050600046846040516020016106e2929190611cb8565b604051602081830303815290604052905060006040518060a0016040528085604051602001610711919061178f565b6040516020818303038152906040528152602001838152602001600067ffffffffffffffff811115610746576107456114e7565b5b60405190808252806020026020018201604052801561077f57816020015b61076c61142a565b8152602001906001900390816107645790505b508152602001600073ffffffffffffffffffffffffffffffffffffffff1681526020016107bc604051806020016040528062030d40815250610f46565b815250905060006107cb610e97565b60000160009054906101000a900473ffffffffffffffffffffffffffffffffffffffff1673ffffffffffffffffffffffffffffffffffffffff166320487ded85846040518363ffffffff1660e01b8152600401610829929190611ecc565b602060405180830381865afa158015610846573d6000803e3d6000fd5b505050506040513d601f19601f8201168201806040525081019061086a9190611efc565b9050808a346108799190611f29565b10156108b1576040517fad3a8b9e00000000000000000000000000000000000000000000000000000000815260040160405180910390fd5b6108b9610e97565b60000160009054906101000a900473ffffffffffffffffffffffffffffffffffffffff1673ffffffffffffffffffffffffffffffffffffffff166396f4e9f98286856040518463ffffffff1660e01b8152600401610918929190611ecc565b60206040518083038185885af1158015610936573d6000803e3d6000fd5b50505050506040513d601f19601f8201168201806040525081019061095b9190611f89565b9850887faf4d8a84b234410af70315b833c476a761b33559f391cf26d8f3bf7baa5f12ee878360405161098f929190611cb8565b60405180910390a25050505050505050919050565b60006109ae610fc5565b90508073ffffffffffffffffffffffffffffffffffffffff166109cf610aa4565b73ffffffffffffffffffffffffffffffffffffffff1614610a2757806040517f118cdaa7000000000000000000000000000000000000000000000000000000008152600401610a1e919061178f565b60405180910390fd5b610a3081610e57565b50565b600080610a3e610fcd565b90508060000160009054906101000a900473ffffffffffffffffffffffffffffffffffffffff1691505090565b6040518060400160405280600581526020017f352e302e3000000000000000000000000000000000000000000000000000000081525081565b600080610aaf610ff5565b90508060000160009054906101000a900473ffffffffffffffffffffffffffffffffffffffff1691505090565b610ae4610ebf565b6000610aee610ff5565b9050818160000160006101000a81548173ffffffffffffffffffffffffffffffffffffffff021916908373ffffffffffffffffffffffffffffffffffffffff1602179055508173ffffffffffffffffffffffffffffffffffffffff16610b52610a33565b73ffffffffffffffffffffffffffffffffffffffff167f38d16b8cac22d99fc7c124b9cd0de2d3fa1faef420bfe791d8c362d765e2270060405160405180910390a35050565b7f000000000000000000000000000000000000000000000000000000000000000073ffffffffffffffffffffffffffffffffffffffff163073ffffffffffffffffffffffffffffffffffffffff161480610c4557507f000000000000000000000000000000000000000000000000000000000000000073ffffffffffffffffffffffffffffffffffffffff16610c2c61101d565b73ffffffffffffffffffffffffffffffffffffffff1614155b15610c7c576040517fe07c8dba00000000000000000000000000000000000000000000000000000000815260040160405180910390fd5b565b610c86610ebf565b50565b8173ffffffffffffffffffffffffffffffffffffffff166352d1902d6040518163ffffffff1660e01b8152600401602060405180830381865afa925050508015610cf157506040513d601f19601f82011682018060405250810190610cee9190611f89565b60015b610d3257816040517f4c9c8ce3000000000000000000000000000000000000000000000000000000008152600401610d29919061178f565b60405180910390fd5b7f360894a13ba1a3210667c828492db98dca3e2076cc3735a920a3ca505d382bbc60001b8114610d9957806040517faa1d49a4000000000000000000000000000000000000000000000000000000008152600401610d909190611687565b60405180910390fd5b610da38383611074565b505050565b7f000000000000000000000000000000000000000000000000000000000000000073ffffffffffffffffffffffffffffffffffffffff163073ffffffffffffffffffffffffffffffffffffffff1614610e2d576040517fe07c8dba00000000000000000000000000000000000000000000000000000000815260040160405180910390fd5b565b60007ff0c57e16840df040f15088dc2f81fe391c3923bec73e23a9662efc9c229c6a00905090565b6000610e61610ff5565b90508060000160006101000a81549073ffffffffffffffffffffffffffffffffffffffff0219169055610e93826110e7565b5050565b60007fe27341574ccce45f37dcd0b599bb3930a0505a29c9f7d7964beef8d73580ce00905090565b610ec7610fc5565b73ffffffffffffffffffffffffffffffffffffffff16610ee5610a33565b73ffffffffffffffffffffffffffffffffffffffff1614610f4457610f08610fc5565b6040517f118cdaa7000000000000000000000000000000000000000000000000000000008152600401610f3b919061178f565b60405180910390fd5b565b60606397a657c960e01b82604051602401610f619190611fd2565b604051602081830303815290604052907bffffffffffffffffffffffffffffffffffffffffffffffffffffffff19166020820180517bffffffffffffffffffffffffffffffffffffffffffffffffffffffff83818316178352505050509050919050565b600033905090565b60007f9016d09d72d40fdae2fd8ceac6b6234c7706214fd39c1cd1e609a0528c199300905090565b60007f237e158222e3e6968b72b9db0d8043aacf074ad9f650f0d1606b4d82ee432c00905090565b600061104b7f360894a13ba1a3210667c828492db98dca3e2076cc3735a920a3ca505d382bbc60001b6111be565b60000160009054906101000a900473ffffffffffffffffffffffffffffffffffffffff16905090565b61107d826111c8565b8173ffffffffffffffffffffffffffffffffffffffff167fbc7cd75a20ee27fd9adebab32041f755214dbc6bffa90cc0225b39da2e5c2d3b60405160405180910390a26000815111156110da576110d48282611295565b506110e3565b6110e2611319565b5b5050565b60006110f1610fcd565b905060008160000160009054906101000a900473ffffffffffffffffffffffffffffffffffffffff169050828260000160006101000a81548173ffffffffffffffffffffffffffffffffffffffff021916908373ffffffffffffffffffffffffffffffffffffffff1602179055508273ffffffffffffffffffffffffffffffffffffffff168173ffffffffffffffffffffffffffffffffffffffff167f8be0079c531659141344cd1fd0a4f28419497f9722a3daafe3b4186f6b6457e060405160405180910390a3505050565b6000819050919050565b60008173ffffffffffffffffffffffffffffffffffffffff163b0361122457806040517f4c9c8ce300000000000000000000000000000000000000000000000000000000815260040161121b919061178f565b60405180910390fd5b806112517f360894a13ba1a3210667c828492db98dca3e2076cc3735a920a3ca505d382bbc60001b6111be565b60000160006101000a81548173ffffffffffffffffffffffffffffffffffffffff021916908373ffffffffffffffffffffffffffffffffffffffff16021790555050565b60606000808473ffffffffffffffffffffffffffffffffffffffff16846040516112bf9190612029565b600060405180830381855af49150503d80600081146112fa576040519150601f19603f3d011682016040523d82523d6000602084013e6112ff565b606091505b509150915061130f858383611356565b9250505092915050565b6000341115611354576040517fb398979f00000000000000000000000000000000000000000000000000000000815260040160405180910390fd5b565b60608261136b57611366826113e5565b6113dd565b60008251148015611393575060008473ffffffffffffffffffffffffffffffffffffffff163b145b156113d557836040517f9996b3150000000000000000000000000000000000000000000000000000000081526004016113cc919061178f565b60405180910390fd5b8190506113de565b5b9392505050565b6000815111156113f85780518082602001fd5b6040517f1425ea4200000000000000000000000000000000000000000000000000000000815260040160405180910390fd5b6040518060400160405280600073ffffffffffffffffffffffffffffffffffffffff168152602001600081525090565b6000604051905090565b600080fd5b600080fd5b600073ffffffffffffffffffffffffffffffffffffffff82169050919050565b60006114998261146e565b9050919050565b6114a98161148e565b81146114b457600080fd5b50565b6000813590506114c6816114a0565b92915050565b600080fd5b600080fd5b6000601f19601f8301169050919050565b7f4e487b7100000000000000000000000000000000000000000000000000000000600052604160045260246000fd5b61151f826114d6565b810181811067ffffffffffffffff8211171561153e5761153d6114e7565b5b80604052505050565b600061155161145a565b905061155d8282611516565b919050565b600067ffffffffffffffff82111561157d5761157c6114e7565b5b611586826114d6565b9050602081019050919050565b82818337600083830152505050565b60006115b56115b084611562565b611547565b9050828152602081018484840111156115d1576115d06114d1565b5b6115dc848285611593565b509392505050565b600082601f8301126115f9576115f86114cc565b5b81356116098482602086016115a2565b91505092915050565b6000806040838503121561162957611628611464565b5b6000611637858286016114b7565b925050602083013567ffffffffffffffff81111561165857611657611469565b5b611664858286016115e4565b9150509250929050565b6000819050919050565b6116818161166e565b82525050565b600060208201905061169c6000830184611678565b92915050565b6000819050919050565b6116b5816116a2565b81146116c057600080fd5b50565b6000813590506116d2816116ac565b92915050565b600080600080600060a086880312156116f4576116f3611464565b5b6000611702888289016114b7565b9550506020611713888289016114b7565b9450506040611724888289016114b7565b9350506060611735888289016116c3565b9250506080611746888289016114b7565b9150509295509295909350565b60006020828403121561176957611768611464565b5b6000611777848285016116c3565b91505092915050565b6117898161148e565b82525050565b60006020820190506117a46000830184611780565b92915050565b600081519050919050565b600082825260208201905092915050565b60005b838110156117e45780820151818401526020810190506117c9565b60008484015250505050565b60006117fb826117aa565b61180581856117b5565b93506118158185602086016117c6565b61181e816114d6565b840191505092915050565b6000602082019050818103600083015261184381846117f0565b905092915050565b60006020828403121561186157611860611464565b5b600061186f848285016114b7565b91505092915050565b6000819050919050565b600067ffffffffffffffff82169050919050565b6000819050919050565b60006118bb6118b66118b184611878565b611896565b611882565b9050919050565b6118cb816118a0565b82525050565b60006020820190506118e660008301846118c2565b92915050565b600069ffffffffffffffffffff82169050919050565b61190b816118ec565b811461191657600080fd5b50565b60008151905061192881611902565b92915050565b6000819050919050565b6119418161192e565b811461194c57600080fd5b50565b60008151905061195e81611938565b92915050565b600081519050611973816116ac565b92915050565b600080600080600060a0868803121561199557611994611464565b5b60006119a388828901611919565b95505060206119b48882890161194f565b94505060406119c588828901611964565b93505060606119d688828901611964565b92505060806119e788828901611919565b9150509295509295909350565b600060ff82169050919050565b611a0a816119f4565b8114611a1557600080fd5b50565b600081519050611a2781611a01565b92915050565b600060208284031215611a4357611a42611464565b5b6000611a5184828501611a18565b91505092915050565b7f4e487b7100000000000000000000000000000000000000000000000000000000600052601160045260246000fd5b60008160011c9050919050565b6000808291508390505b6001851115611ae057808604811115611abc57611abb611a5a565b5b6001851615611acb5780820291505b8081029050611ad985611a89565b9450611aa0565b94509492505050565b600082611af95760019050611bb5565b81611b075760009050611bb5565b8160018114611b1d5760028114611b2757611b56565b6001915050611bb5565b60ff841115611b3957611b38611a5a565b5b8360020a915084821115611b5057611b4f611a5a565b5b50611bb5565b5060208310610133831016604e8410600b8410161715611b8b5782820a905083811115611b8657611b85611a5a565b5b611bb5565b611b988484846001611a96565b92509050818404811115611baf57611bae611a5a565b5b81810290505b9392505050565b6000611bc7826116a2565b9150611bd2836119f4565b9250611bff7fffffffffffffffffffffffffffffffffffffffffffffffffffffffffffffffff8484611ae9565b905092915050565b6000611c12826116a2565b9150611c1d836116a2565b9250828202611c2b816116a2565b91508282048414831517611c4257611c41611a5a565b5b5092915050565b7f4e487b7100000000000000000000000000000000000000000000000000000000600052601260045260246000fd5b6000611c83826116a2565b9150611c8e836116a2565b925082611c9e57611c9d611c49565b5b828204905092915050565b611cb2816116a2565b82525050565b6000604082019050611ccd6000830185611ca9565b611cda6020830184611ca9565b9392505050565b611cea81611882565b82525050565b600081519050919050565b600082825260208201905092915050565b6000611d1782611cf0565b611d218185611cfb565b9350611d318185602086016117c6565b611d3a816114d6565b840191505092915050565b600081519050919050565b600082825260208201905092915050565b6000819050602082019050919050565b611d7a8161148e565b82525050565b611d89816116a2565b82525050565b604082016000820151611da56000850182611d71565b506020820151611db86020850182611d80565b50505050565b6000611dca8383611d8f565b60408301905092915050565b6000602082019050919050565b6000611dee82611d45565b611df88185611d50565b9350611e0383611d61565b8060005b83811015611e34578151611e1b8882611dbe565b9750611e2683611dd6565b925050600181019050611e07565b5085935050505092915050565b600060a0830160008301518482036000860152611e5e8282611d0c565b91505060208301518482036020860152611e788282611d0c565b91505060408301518482036040860152611e928282611de3565b9150506060830151611ea76060860182611d71565b5060808301518482036080860152611ebf8282611d0c565b9150508091505092915050565b6000604082019050611ee16000830185611ce1565b8181036020830152611ef38184611e41565b90509392505050565b600060208284031215611f1257611f11611464565b5b6000611f2084828501611964565b91505092915050565b6000611f34826116a2565b9150611f3f836116a2565b9250828203905081811115611f5757611f56611a5a565b5b92915050565b611f668161166e565b8114611f7157600080fd5b50565b600081519050611f8381611f5d565b92915050565b600060208284031215611f9f57611f9e611464565b5b6000611fad84828501611f74565b91505092915050565b602082016000820151611fcc6000850182611d80565b50505050565b6000602082019050611fe76000830184611fb6565b92915050565b600081905092915050565b600061200382611cf0565b61200d8185611fed565b935061201d8185602086016117c6565b80840191505092915050565b60006120358284611ff8565b91508190509291505056fea26469706673582212205ec6b425e421d027845c553d46541865883fa2f074d6b27eda9aea0037d522b264736f6c63430008190033",
  "devdoc": {
    "errors": {
      "AddressEmptyCode(address)": [
        {
          "details": "There's no code at `target` (it is not a contract)."
        }
      ],
      "ERC1967InvalidImplementation(address)": [
        {
          "details": "The `implementation` of the proxy is invalid."
        }
      ],
      "ERC1967NonPayable()": [
        {
          "details": "An upgrade function sees `msg.value > 0` that may be lost."
        }
      ],
      "FailedInnerCall()": [
        {
          "details": "A call to an address target failed. The target may have reverted."
        }
      ],
      "InvalidInitialization()": [
        {
          "details": "The contract is already initialized."
        }
      ],
      "NotInitializing()": [
        {
          "details": "The contract is not initializing."
        }
      ],
      "OwnableInvalidOwner(address)": [
        {
          "details": "The owner is not a valid owner account. (eg. `address(0)`)"
        }
      ],
      "OwnableUnauthorizedAccount(address)": [
        {
          "details": "The caller account is not authorized to perform an operation."
        }
      ],
      "UUPSUnauthorizedCallContext()": [
        {
          "details": "The call is from an unauthorized context."
        }
      ],
      "UUPSUnsupportedProxiableUUID(bytes32)": [
        {
          "details": "The storage `slot` is unsupported as a UUID."
        }
      ]
    },
    "events": {
      "Initialized(uint64)": {
        "details": "Triggered when the contract has been initialized or reinitialized."
      },
      "Upgraded(address)": {
        "details": "Emitted when the implementation is upgraded."
      }
    },
    "kind": "dev",
    "methods": {
      "acceptOwnership()": {
        "details": "The new owner accepts the ownership transfer."
      },
      "owner()": {
        "details": "Returns the address of the current owner."
      },
      "pendingOwner()": {
        "details": "Returns the address of the pending owner."
      },
      "proxiableUUID()": {
        "details": "Implementation of the ERC1822 {proxiableUUID} function. This returns the storage slot used by the implementation. It is used to validate the implementation's compatibility when performing an upgrade. IMPORTANT: A proxy pointing at a proxiable contract should not be considered proxiable itself, because this risks bricking a proxy that upgrades to it, by delegating to itself until out of gas. Thus it is critical that this function revert if invoked through a proxy. This is guaranteed by the `notDelegated` modifier."
      },
      "renounceOwnership()": {
        "details": "Leaves the contract without owner. It will not be possible to call `onlyOwner` functions. Can only be called by the current owner. NOTE: Renouncing ownership will leave the contract without an owner, thereby disabling any functionality that is only available to the owner."
      },
      "sendHorse(uint256)": {
        "returns": {
          "messageId": "The ID of the message that was sent."
        }
      },
      "transferOwnership(address)": {
        "details": "Starts the ownership transfer of the contract to a new account. Replaces the pending transfer if there is one. Can only be called by the current owner."
      },
      "upgradeToAndCall(address,bytes)": {
        "custom:oz-upgrades-unsafe-allow-reachable": "delegatecall",
        "details": "Upgrade the implementation of the proxy to `newImplementation`, and subsequently execute the function call encoded in `data`. Calls {_authorizeUpgrade}. Emits an {Upgraded} event."
      }
    },
    "version": 1
  },
  "userdoc": {
    "kind": "user",
    "methods": {
      "sendHorse(uint256)": {
        "notice": "Sends data to receiver on the destination chain."
      }
    },
    "version": 1
  },
  "storageLayout": {
    "storage": [],
    "types": null
  }
}