{
  "address": "0x2B4899c7316cc7d15301dbD0A5D7204456D3B441",
  "abi": [
    {
      "inputs": [
        {
          "internalType": "address",
          "name": "target",
          "type": "address"
        }
      ],
      "name": "AddressEmptyCode",
      "type": "error"
    },
    {
      "inputs": [
        {
          "internalType": "address",
          "name": "implementation",
          "type": "address"
        }
      ],
      "name": "ERC1967InvalidImplementation",
      "type": "error"
    },
    {
      "inputs": [],
      "name": "ERC1967NonPayable",
      "type": "error"
    },
    {
      "inputs": [],
      "name": "FailedInnerCall",
      "type": "error"
    },
    {
      "inputs": [],
      "name": "InvalidInitialization",
      "type": "error"
    },
    {
      "inputs": [
        {
          "internalType": "address",
          "name": "router",
          "type": "address"
        }
      ],
      "name": "InvalidRouter",
      "type": "error"
    },
    {
      "inputs": [],
      "name": "NotInitializing",
      "type": "error"
    },
    {
      "inputs": [
        {
          "internalType": "address",
          "name": "owner",
          "type": "address"
        }
      ],
      "name": "OwnableInvalidOwner",
      "type": "error"
    },
    {
      "inputs": [
        {
          "internalType": "address",
          "name": "account",
          "type": "address"
        }
      ],
      "name": "OwnableUnauthorizedAccount",
      "type": "error"
    },
    {
      "inputs": [],
      "name": "UUPSUnauthorizedCallContext",
      "type": "error"
    },
    {
      "inputs": [
        {
          "internalType": "bytes32",
          "name": "slot",
          "type": "bytes32"
        }
      ],
      "name": "UUPSUnsupportedProxiableUUID",
      "type": "error"
    },
    {
      "anonymous": false,
      "inputs": [
        {
          "indexed": false,
          "internalType": "uint64",
          "name": "version",
          "type": "uint64"
        }
      ],
      "name": "Initialized",
      "type": "event"
    },
    {
      "anonymous": false,
      "inputs": [
        {
          "indexed": true,
          "internalType": "address",
          "name": "previousOwner",
          "type": "address"
        },
        {
          "indexed": true,
          "internalType": "address",
          "name": "newOwner",
          "type": "address"
        }
      ],
      "name": "OwnershipTransferStarted",
      "type": "event"
    },
    {
      "anonymous": false,
      "inputs": [
        {
          "indexed": true,
          "internalType": "address",
          "name": "previousOwner",
          "type": "address"
        },
        {
          "indexed": true,
          "internalType": "address",
          "name": "newOwner",
          "type": "address"
        }
      ],
      "name": "OwnershipTransferred",
      "type": "event"
    },
    {
      "anonymous": false,
      "inputs": [
        {
          "indexed": true,
          "internalType": "uint256",
          "name": "chainId",
          "type": "uint256"
        },
        {
          "indexed": false,
          "internalType": "uint256",
          "name": "amount",
          "type": "uint256"
        },
        {
          "indexed": false,
          "internalType": "uint256",
          "name": "initChampion",
          "type": "uint256"
        },
        {
          "indexed": false,
          "internalType": "uint256",
          "name": "initAmount",
          "type": "uint256"
        },
        {
          "indexed": false,
          "internalType": "uint256",
          "name": "laterChainpion",
          "type": "uint256"
        },
        {
          "indexed": false,
          "internalType": "uint256",
          "name": "laterAmount",
          "type": "uint256"
        }
      ],
      "name": "SoldiersArrive",
      "type": "event"
    },
    {
      "anonymous": false,
      "inputs": [
        {
          "indexed": true,
          "internalType": "address",
          "name": "implementation",
          "type": "address"
        }
      ],
      "name": "Upgraded",
      "type": "event"
    },
    {
      "inputs": [],
      "name": "UPGRADE_INTERFACE_VERSION",
      "outputs": [
        {
          "internalType": "string",
          "name": "",
          "type": "string"
        }
      ],
      "stateMutability": "view",
      "type": "function"
    },
    {
      "inputs": [],
      "name": "acceptOwnership",
      "outputs": [],
      "stateMutability": "nonpayable",
      "type": "function"
    },
    {
      "inputs": [
        {
          "components": [
            {
              "internalType": "bytes32",
              "name": "messageId",
              "type": "bytes32"
            },
            {
              "internalType": "uint64",
              "name": "sourceChainSelector",
              "type": "uint64"
            },
            {
              "internalType": "bytes",
              "name": "sender",
              "type": "bytes"
            },
            {
              "internalType": "bytes",
              "name": "data",
              "type": "bytes"
            },
            {
              "components": [
                {
                  "internalType": "address",
                  "name": "token",
                  "type": "address"
                },
                {
                  "internalType": "uint256",
                  "name": "amount",
                  "type": "uint256"
                }
              ],
              "internalType": "struct Client.EVMTokenAmount[]",
              "name": "destTokenAmounts",
              "type": "tuple[]"
            }
          ],
          "internalType": "struct Client.Any2EVMMessage",
          "name": "message",
          "type": "tuple"
        }
      ],
      "name": "ccipReceive",
      "outputs": [],
      "stateMutability": "nonpayable",
      "type": "function"
    },
    {
      "inputs": [],
      "name": "getRouter",
      "outputs": [
        {
          "internalType": "address",
          "name": "",
          "type": "address"
        }
      ],
      "stateMutability": "view",
      "type": "function"
    },
    {
      "inputs": [
        {
          "internalType": "address",
          "name": "owner_",
          "type": "address"
        },
        {
          "internalType": "address",
          "name": "router_",
          "type": "address"
        }
      ],
      "name": "initialize",
      "outputs": [],
      "stateMutability": "nonpayable",
      "type": "function"
    },
    {
      "inputs": [],
      "name": "owner",
      "outputs": [
        {
          "internalType": "address",
          "name": "",
          "type": "address"
        }
      ],
      "stateMutability": "view",
      "type": "function"
    },
    {
      "inputs": [],
      "name": "pendingOwner",
      "outputs": [
        {
          "internalType": "address",
          "name": "",
          "type": "address"
        }
      ],
      "stateMutability": "view",
      "type": "function"
    },
    {
      "inputs": [],
      "name": "proxiableUUID",
      "outputs": [
        {
          "internalType": "bytes32",
          "name": "",
          "type": "bytes32"
        }
      ],
      "stateMutability": "view",
      "type": "function"
    },
    {
      "inputs": [],
      "name": "readStorageValue",
      "outputs": [
        {
          "components": [
            {
              "internalType": "uint256",
              "name": "championChainId",
              "type": "uint256"
            },
            {
              "internalType": "uint256",
              "name": "soldierAmount",
              "type": "uint256"
            }
          ],
          "internalType": "struct Troy.TroyStorage",
          "name": "",
          "type": "tuple"
        }
      ],
      "stateMutability": "view",
      "type": "function"
    },
    {
      "inputs": [],
      "name": "renounceOwnership",
      "outputs": [],
      "stateMutability": "nonpayable",
      "type": "function"
    },
    {
      "inputs": [
        {
          "internalType": "bytes4",
          "name": "interfaceId",
          "type": "bytes4"
        }
      ],
      "name": "supportsInterface",
      "outputs": [
        {
          "internalType": "bool",
          "name": "",
          "type": "bool"
        }
      ],
      "stateMutability": "pure",
      "type": "function"
    },
    {
      "inputs": [
        {
          "internalType": "address",
          "name": "newOwner",
          "type": "address"
        }
      ],
      "name": "transferOwnership",
      "outputs": [],
      "stateMutability": "nonpayable",
      "type": "function"
    },
    {
      "inputs": [
        {
          "internalType": "address",
          "name": "newImplementation",
          "type": "address"
        },
        {
          "internalType": "bytes",
          "name": "data",
          "type": "bytes"
        }
      ],
      "name": "upgradeToAndCall",
      "outputs": [],
      "stateMutability": "payable",
      "type": "function"
    }
  ],
  "args": [],
  "numDeployments": 1,
  "solcInputHash": "50f0135ed1b76d5ef4eade774f31e1b4",
  "bytecode": "0x60a06040523073ffffffffffffffffffffffffffffffffffffffff1660809073ffffffffffffffffffffffffffffffffffffffff16815250348015604257600080fd5b50608051611d1c61006c600039600081816109d001528181610a250152610be00152611d1c6000f3fe6080604052600436106100c25760003560e01c806385572ffb1161007f578063b0f479a111610059578063b0f479a114610221578063e30c39781461024c578063f2fde38b14610277578063f4fbc82d146102a0576100c2565b806385572ffb146101a25780638da5cb5b146101cb578063ad3cb1cc146101f6576100c2565b806301ffc9a7146100c7578063485cc955146101045780634f1ef2861461012d57806352d1902d14610149578063715018a61461017457806379ba50971461018b575b600080fd5b3480156100d357600080fd5b506100ee60048036038101906100e9919061134c565b6102cb565b6040516100fb9190611394565b60405180910390f35b34801561011057600080fd5b5061012b6004803603810190610126919061140d565b61039d565b005b61014760048036038101906101429190611593565b610536565b005b34801561015557600080fd5b5061015e610555565b60405161016b9190611608565b60405180910390f35b34801561018057600080fd5b50610189610588565b005b34801561019757600080fd5b506101a061059c565b005b3480156101ae57600080fd5b506101c960048036038101906101c49190611647565b61062b565b005b3480156101d757600080fd5b506101e06106db565b6040516101ed919061169f565b60405180910390f35b34801561020257600080fd5b5061020b610713565b6040516102189190611739565b60405180910390f35b34801561022d57600080fd5b5061023661074c565b604051610243919061169f565b60405180910390f35b34801561025857600080fd5b5061026161077f565b60405161026e919061169f565b60405180910390f35b34801561028357600080fd5b5061029e6004803603810190610299919061175b565b6107b7565b005b3480156102ac57600080fd5b506102b5610873565b6040516102c291906117d0565b60405180910390f35b60007f85572ffb000000000000000000000000000000000000000000000000000000007bffffffffffffffffffffffffffffffffffffffffffffffffffffffff1916827bffffffffffffffffffffffffffffffffffffffffffffffffffffffff1916148061039657507f01ffc9a7000000000000000000000000000000000000000000000000000000007bffffffffffffffffffffffffffffffffffffffffffffffffffffffff1916827bffffffffffffffffffffffffffffffffffffffffffffffffffffffff1916145b9050919050565b60006103a76108a7565b905060008160000160089054906101000a900460ff1615905060008260000160009054906101000a900467ffffffffffffffff1690506000808267ffffffffffffffff161480156103f55750825b9050600060018367ffffffffffffffff1614801561042a575060003073ffffffffffffffffffffffffffffffffffffffff163b145b905081158015610438575080155b1561046f576040517ff92ee8a900000000000000000000000000000000000000000000000000000000815260040160405180910390fd5b60018560000160006101000a81548167ffffffffffffffff021916908367ffffffffffffffff16021790555083156104bf5760018560000160086101000a81548160ff0219169083151502179055505b6104c8876108cf565b6104d18661090f565b831561052d5760008560000160086101000a81548160ff0219169083151502179055507fc7f505b2f371ae2175ee4913f4499e1f2633a7b5936321eed1cdaeb6115181d260016040516105249190611844565b60405180910390a15b50505050505050565b61053e6109ce565b61054782610ab4565b6105518282610abf565b5050565b600061055f610bde565b7f360894a13ba1a3210667c828492db98dca3e2076cc3735a920a3ca505d382bbc60001b905090565b610590610c65565b61059a60006108cf565b565b60006105a6610cec565b90508073ffffffffffffffffffffffffffffffffffffffff166105c761077f565b73ffffffffffffffffffffffffffffffffffffffff161461061f57806040517f118cdaa7000000000000000000000000000000000000000000000000000000008152600401610616919061169f565b60405180910390fd5b610628816108cf565b50565b610633610cf4565b60000160009054906101000a900473ffffffffffffffffffffffffffffffffffffffff1673ffffffffffffffffffffffffffffffffffffffff163373ffffffffffffffffffffffffffffffffffffffff16146106c657336040517fd7f733340000000000000000000000000000000000000000000000000000000081526004016106bd919061169f565b60405180910390fd5b6106d8816106d390611ae5565b610d1c565b50565b6000806106e6610e41565b90508060000160009054906101000a900473ffffffffffffffffffffffffffffffffffffffff1691505090565b6040518060400160405280600581526020017f352e302e3000000000000000000000000000000000000000000000000000000081525081565b6000610756610cf4565b60000160009054906101000a900473ffffffffffffffffffffffffffffffffffffffff16905090565b60008061078a610e69565b90508060000160009054906101000a900473ffffffffffffffffffffffffffffffffffffffff1691505090565b6107bf610c65565b60006107c9610e69565b9050818160000160006101000a81548173ffffffffffffffffffffffffffffffffffffffff021916908373ffffffffffffffffffffffffffffffffffffffff1602179055508173ffffffffffffffffffffffffffffffffffffffff1661082d6106db565b73ffffffffffffffffffffffffffffffffffffffff167f38d16b8cac22d99fc7c124b9cd0de2d3fa1faef420bfe791d8c362d765e2270060405160405180910390a35050565b61087b6112c6565b610883610e91565b60405180604001604052908160008201548152602001600182015481525050905090565b60007ff0c57e16840df040f15088dc2f81fe391c3923bec73e23a9662efc9c229c6a00905090565b60006108d9610e69565b90508060000160006101000a81549073ffffffffffffffffffffffffffffffffffffffff021916905561090b82610eb9565b5050565b600073ffffffffffffffffffffffffffffffffffffffff168173ffffffffffffffffffffffffffffffffffffffff16036109815760006040517fd7f73334000000000000000000000000000000000000000000000000000000008152600401610978919061169f565b60405180910390fd5b8061098a610cf4565b60000160006101000a81548173ffffffffffffffffffffffffffffffffffffffff021916908373ffffffffffffffffffffffffffffffffffffffff16021790555050565b7f000000000000000000000000000000000000000000000000000000000000000073ffffffffffffffffffffffffffffffffffffffff163073ffffffffffffffffffffffffffffffffffffffff161480610a7b57507f000000000000000000000000000000000000000000000000000000000000000073ffffffffffffffffffffffffffffffffffffffff16610a62610f90565b73ffffffffffffffffffffffffffffffffffffffff1614155b15610ab2576040517fe07c8dba00000000000000000000000000000000000000000000000000000000815260040160405180910390fd5b565b610abc610c65565b50565b8173ffffffffffffffffffffffffffffffffffffffff166352d1902d6040518163ffffffff1660e01b8152600401602060405180830381865afa925050508015610b2757506040513d601f19601f82011682018060405250810190610b249190611b0d565b60015b610b6857816040517f4c9c8ce3000000000000000000000000000000000000000000000000000000008152600401610b5f919061169f565b60405180910390fd5b7f360894a13ba1a3210667c828492db98dca3e2076cc3735a920a3ca505d382bbc60001b8114610bcf57806040517faa1d49a4000000000000000000000000000000000000000000000000000000008152600401610bc69190611608565b60405180910390fd5b610bd98383610fe7565b505050565b7f000000000000000000000000000000000000000000000000000000000000000073ffffffffffffffffffffffffffffffffffffffff163073ffffffffffffffffffffffffffffffffffffffff1614610c63576040517fe07c8dba00000000000000000000000000000000000000000000000000000000815260040160405180910390fd5b565b610c6d610cec565b73ffffffffffffffffffffffffffffffffffffffff16610c8b6106db565b73ffffffffffffffffffffffffffffffffffffffff1614610cea57610cae610cec565b6040517f118cdaa7000000000000000000000000000000000000000000000000000000008152600401610ce1919061169f565b60405180910390fd5b565b600033905090565b60007fb9605d6807cee7e996cb505aab0fff682142fb832cd7587ec7f7258d80300000905090565b6000808260600151806020019051810190610d379190611b4f565b915091506000610d45610e91565b6000015490506000610d55610e91565b600101549050818403610d895782610d6b610e91565b6001016000828254610d7d9190611bbe565b92505081905550610de4565b828110610db75782610d99610e91565b6001016000828254610dab9190611bbe565b92505081905550610de3565b8083610dc39190611bf2565b610dcb610e91565b6001018190555083610ddb610e91565b600001819055505b5b837f9ee8144ef8473ddbca3dcf0ed6023b3a5daf173621e2e073c6946ac72df54147848484610e11610e91565b60000154610e1d610e91565b60010154604051610e32959493929190611c35565b60405180910390a25050505050565b60007f9016d09d72d40fdae2fd8ceac6b6234c7706214fd39c1cd1e609a0528c199300905090565b60007f237e158222e3e6968b72b9db0d8043aacf074ad9f650f0d1606b4d82ee432c00905090565b60007fdd3df5464778d98b8f59c24d166861cc7b36f749c939a9173f338d95c7f4fe00905090565b6000610ec3610e41565b905060008160000160009054906101000a900473ffffffffffffffffffffffffffffffffffffffff169050828260000160006101000a81548173ffffffffffffffffffffffffffffffffffffffff021916908373ffffffffffffffffffffffffffffffffffffffff1602179055508273ffffffffffffffffffffffffffffffffffffffff168173ffffffffffffffffffffffffffffffffffffffff167f8be0079c531659141344cd1fd0a4f28419497f9722a3daafe3b4186f6b6457e060405160405180910390a3505050565b6000610fbe7f360894a13ba1a3210667c828492db98dca3e2076cc3735a920a3ca505d382bbc60001b61105a565b60000160009054906101000a900473ffffffffffffffffffffffffffffffffffffffff16905090565b610ff082611064565b8173ffffffffffffffffffffffffffffffffffffffff167fbc7cd75a20ee27fd9adebab32041f755214dbc6bffa90cc0225b39da2e5c2d3b60405160405180910390a260008151111561104d576110478282611131565b50611056565b6110556111b5565b5b5050565b6000819050919050565b60008173ffffffffffffffffffffffffffffffffffffffff163b036110c057806040517f4c9c8ce30000000000000000000000000000000000000000000000000000000081526004016110b7919061169f565b60405180910390fd5b806110ed7f360894a13ba1a3210667c828492db98dca3e2076cc3735a920a3ca505d382bbc60001b61105a565b60000160006101000a81548173ffffffffffffffffffffffffffffffffffffffff021916908373ffffffffffffffffffffffffffffffffffffffff16021790555050565b60606000808473ffffffffffffffffffffffffffffffffffffffff168460405161115b9190611ccf565b600060405180830381855af49150503d8060008114611196576040519150601f19603f3d011682016040523d82523d6000602084013e61119b565b606091505b50915091506111ab8583836111f2565b9250505092915050565b60003411156111f0576040517fb398979f00000000000000000000000000000000000000000000000000000000815260040160405180910390fd5b565b6060826112075761120282611281565b611279565b6000825114801561122f575060008473ffffffffffffffffffffffffffffffffffffffff163b145b1561127157836040517f9996b315000000000000000000000000000000000000000000000000000000008152600401611268919061169f565b60405180910390fd5b81905061127a565b5b9392505050565b6000815111156112945780518082602001fd5b6040517f1425ea4200000000000000000000000000000000000000000000000000000000815260040160405180910390fd5b604051806040016040528060008152602001600081525090565b6000604051905090565b600080fd5b600080fd5b60007fffffffff0000000000000000000000000000000000000000000000000000000082169050919050565b611329816112f4565b811461133457600080fd5b50565b60008135905061134681611320565b92915050565b600060208284031215611362576113616112ea565b5b600061137084828501611337565b91505092915050565b60008115159050919050565b61138e81611379565b82525050565b60006020820190506113a96000830184611385565b92915050565b600073ffffffffffffffffffffffffffffffffffffffff82169050919050565b60006113da826113af565b9050919050565b6113ea816113cf565b81146113f557600080fd5b50565b600081359050611407816113e1565b92915050565b60008060408385031215611424576114236112ea565b5b6000611432858286016113f8565b9250506020611443858286016113f8565b9150509250929050565b600080fd5b600080fd5b6000601f19601f8301169050919050565b7f4e487b7100000000000000000000000000000000000000000000000000000000600052604160045260246000fd5b6114a082611457565b810181811067ffffffffffffffff821117156114bf576114be611468565b5b80604052505050565b60006114d26112e0565b90506114de8282611497565b919050565b600067ffffffffffffffff8211156114fe576114fd611468565b5b61150782611457565b9050602081019050919050565b82818337600083830152505050565b6000611536611531846114e3565b6114c8565b90508281526020810184848401111561155257611551611452565b5b61155d848285611514565b509392505050565b600082601f83011261157a5761157961144d565b5b813561158a848260208601611523565b91505092915050565b600080604083850312156115aa576115a96112ea565b5b60006115b8858286016113f8565b925050602083013567ffffffffffffffff8111156115d9576115d86112ef565b5b6115e585828601611565565b9150509250929050565b6000819050919050565b611602816115ef565b82525050565b600060208201905061161d60008301846115f9565b92915050565b600080fd5b600060a0828403121561163e5761163d611623565b5b81905092915050565b60006020828403121561165d5761165c6112ea565b5b600082013567ffffffffffffffff81111561167b5761167a6112ef565b5b61168784828501611628565b91505092915050565b611699816113cf565b82525050565b60006020820190506116b46000830184611690565b92915050565b600081519050919050565b600082825260208201905092915050565b60005b838110156116f45780820151818401526020810190506116d9565b60008484015250505050565b600061170b826116ba565b61171581856116c5565b93506117258185602086016116d6565b61172e81611457565b840191505092915050565b600060208201905081810360008301526117538184611700565b905092915050565b600060208284031215611771576117706112ea565b5b600061177f848285016113f8565b91505092915050565b6000819050919050565b61179b81611788565b82525050565b6040820160008201516117b76000850182611792565b5060208201516117ca6020850182611792565b50505050565b60006040820190506117e560008301846117a1565b92915050565b6000819050919050565b600067ffffffffffffffff82169050919050565b6000819050919050565b600061182e611829611824846117eb565b611809565b6117f5565b9050919050565b61183e81611813565b82525050565b60006020820190506118596000830184611835565b92915050565b600080fd5b600080fd5b611872816115ef565b811461187d57600080fd5b50565b60008135905061188f81611869565b92915050565b61189e816117f5565b81146118a957600080fd5b50565b6000813590506118bb81611895565b92915050565b600067ffffffffffffffff8211156118dc576118db611468565b5b602082029050602081019050919050565b600080fd5b6118fb81611788565b811461190657600080fd5b50565b600081359050611918816118f2565b92915050565b6000604082840312156119345761193361185f565b5b61193e60406114c8565b9050600061194e848285016113f8565b600083015250602061196284828501611909565b60208301525092915050565b600061198161197c846118c1565b6114c8565b905080838252602082019050604084028301858111156119a4576119a36118ed565b5b835b818110156119cd57806119b9888261191e565b8452602084019350506040810190506119a6565b5050509392505050565b600082601f8301126119ec576119eb61144d565b5b81356119fc84826020860161196e565b91505092915050565b600060a08284031215611a1b57611a1a61185f565b5b611a2560a06114c8565b90506000611a3584828501611880565b6000830152506020611a49848285016118ac565b602083015250604082013567ffffffffffffffff811115611a6d57611a6c611864565b5b611a7984828501611565565b604083015250606082013567ffffffffffffffff811115611a9d57611a9c611864565b5b611aa984828501611565565b606083015250608082013567ffffffffffffffff811115611acd57611acc611864565b5b611ad9848285016119d7565b60808301525092915050565b6000611af13683611a05565b9050919050565b600081519050611b0781611869565b92915050565b600060208284031215611b2357611b226112ea565b5b6000611b3184828501611af8565b91505092915050565b600081519050611b49816118f2565b92915050565b60008060408385031215611b6657611b656112ea565b5b6000611b7485828601611b3a565b9250506020611b8585828601611b3a565b9150509250929050565b7f4e487b7100000000000000000000000000000000000000000000000000000000600052601160045260246000fd5b6000611bc982611788565b9150611bd483611788565b9250828201905080821115611bec57611beb611b8f565b5b92915050565b6000611bfd82611788565b9150611c0883611788565b9250828203905081811115611c2057611c1f611b8f565b5b92915050565b611c2f81611788565b82525050565b600060a082019050611c4a6000830188611c26565b611c576020830187611c26565b611c646040830186611c26565b611c716060830185611c26565b611c7e6080830184611c26565b9695505050505050565b600081519050919050565b600081905092915050565b6000611ca982611c88565b611cb38185611c93565b9350611cc38185602086016116d6565b80840191505092915050565b6000611cdb8284611c9e565b91508190509291505056fea264697066735822122011882c2ae8a31317f2b8dfeaddd4324934891c58d9c8c1f3c2efa6d6beed1bdd64736f6c63430008190033",
  "devdoc": {
    "errors": {
      "AddressEmptyCode(address)": [
        {
          "details": "There's no code at `target` (it is not a contract)."
        }
      ],
      "ERC1967InvalidImplementation(address)": [
        {
          "details": "The `implementation` of the proxy is invalid."
        }
      ],
      "ERC1967NonPayable()": [
        {
          "details": "An upgrade function sees `msg.value > 0` that may be lost."
        }
      ],
      "FailedInnerCall()": [
        {
          "details": "A call to an address target failed. The target may have reverted."
        }
      ],
      "InvalidInitialization()": [
        {
          "details": "The contract is already initialized."
        }
      ],
      "NotInitializing()": [
        {
          "details": "The contract is not initializing."
        }
      ],
      "OwnableInvalidOwner(address)": [
        {
          "details": "The owner is not a valid owner account. (eg. `address(0)`)"
        }
      ],
      "OwnableUnauthorizedAccount(address)": [
        {
          "details": "The caller account is not authorized to perform an operation."
        }
      ],
      "UUPSUnauthorizedCallContext()": [
        {
          "details": "The call is from an unauthorized context."
        }
      ],
      "UUPSUnsupportedProxiableUUID(bytes32)": [
        {
          "details": "The storage `slot` is unsupported as a UUID."
        }
      ]
    },
    "events": {
      "Initialized(uint64)": {
        "details": "Triggered when the contract has been initialized or reinitialized."
      },
      "Upgraded(address)": {
        "details": "Emitted when the implementation is upgraded."
      }
    },
    "kind": "dev",
    "methods": {
      "acceptOwnership()": {
        "details": "The new owner accepts the ownership transfer."
      },
      "ccipReceive((bytes32,uint64,bytes,bytes,(address,uint256)[]))": {
        "details": "Note ensure you check the msg.sender is the OffRampRouter",
        "params": {
          "message": "CCIP Message"
        }
      },
      "getRouter()": {
        "returns": {
          "_0": "CCIP router address"
        }
      },
      "owner()": {
        "details": "Returns the address of the current owner."
      },
      "pendingOwner()": {
        "details": "Returns the address of the pending owner."
      },
      "proxiableUUID()": {
        "details": "Implementation of the ERC1822 {proxiableUUID} function. This returns the storage slot used by the implementation. It is used to validate the implementation's compatibility when performing an upgrade. IMPORTANT: A proxy pointing at a proxiable contract should not be considered proxiable itself, because this risks bricking a proxy that upgrades to it, by delegating to itself until out of gas. Thus it is critical that this function revert if invoked through a proxy. This is guaranteed by the `notDelegated` modifier."
      },
      "renounceOwnership()": {
        "details": "Leaves the contract without owner. It will not be possible to call `onlyOwner` functions. Can only be called by the current owner. NOTE: Renouncing ownership will leave the contract without an owner, thereby disabling any functionality that is only available to the owner."
      },
      "supportsInterface(bytes4)": {
        "details": "Should indicate whether the contract implements IAny2EVMMessageReceiver e.g. return interfaceId == type(IAny2EVMMessageReceiver).interfaceId || interfaceId == type(IERC165).interfaceId This allows CCIP to check if ccipReceive is available before calling it. If this returns false or reverts, only tokens are transferred to the receiver. If this returns true, tokens are transferred and ccipReceive is called atomically. Additionally, if the receiver address does not have code associated with it at the time of execution (EXTCODESIZE returns 0), only tokens will be transferred.",
        "params": {
          "interfaceId": "The interfaceId to check"
        },
        "returns": {
          "_0": "true if the interfaceId is supported"
        }
      },
      "transferOwnership(address)": {
        "details": "Starts the ownership transfer of the contract to a new account. Replaces the pending transfer if there is one. Can only be called by the current owner."
      },
      "upgradeToAndCall(address,bytes)": {
        "custom:oz-upgrades-unsafe-allow-reachable": "delegatecall",
        "details": "Upgrade the implementation of the proxy to `newImplementation`, and subsequently execute the function call encoded in `data`. Calls {_authorizeUpgrade}. Emits an {Upgraded} event."
      }
    },
    "version": 1
  },
  "userdoc": {
    "kind": "user",
    "methods": {
      "ccipReceive((bytes32,uint64,bytes,bytes,(address,uint256)[]))": {
        "notice": "Called by the Router to deliver a message. If this reverts, any token transfers also revert. The message will move to a FAILED state and become available for manual execution."
      },
      "getRouter()": {
        "notice": "Return the current router"
      },
      "supportsInterface(bytes4)": {
        "notice": "IERC165 supports an interfaceId"
      }
    },
    "version": 1
  },
  "storageLayout": {
    "storage": [],
    "types": null
  }
}