{
  "address": "0x4880bF58668f53EbD9694026244a40De1E323483",
  "abi": [
    {
      "inputs": [
        {
          "internalType": "address",
          "name": "target",
          "type": "address"
        }
      ],
      "name": "AddressEmptyCode",
      "type": "error"
    },
    {
      "inputs": [
        {
          "internalType": "address",
          "name": "implementation",
          "type": "address"
        }
      ],
      "name": "ERC1967InvalidImplementation",
      "type": "error"
    },
    {
      "inputs": [],
      "name": "ERC1967NonPayable",
      "type": "error"
    },
    {
      "inputs": [],
      "name": "FailedInnerCall",
      "type": "error"
    },
    {
      "inputs": [],
      "name": "InvalidInitialization",
      "type": "error"
    },
    {
      "inputs": [
        {
          "internalType": "address",
          "name": "router",
          "type": "address"
        }
      ],
      "name": "InvalidRouter",
      "type": "error"
    },
    {
      "inputs": [],
      "name": "NotInitializing",
      "type": "error"
    },
    {
      "inputs": [
        {
          "internalType": "address",
          "name": "owner",
          "type": "address"
        }
      ],
      "name": "OwnableInvalidOwner",
      "type": "error"
    },
    {
      "inputs": [
        {
          "internalType": "address",
          "name": "account",
          "type": "address"
        }
      ],
      "name": "OwnableUnauthorizedAccount",
      "type": "error"
    },
    {
      "inputs": [],
      "name": "UUPSUnauthorizedCallContext",
      "type": "error"
    },
    {
      "inputs": [
        {
          "internalType": "bytes32",
          "name": "slot",
          "type": "bytes32"
        }
      ],
      "name": "UUPSUnsupportedProxiableUUID",
      "type": "error"
    },
    {
      "anonymous": false,
      "inputs": [
        {
          "indexed": false,
          "internalType": "uint64",
          "name": "version",
          "type": "uint64"
        }
      ],
      "name": "Initialized",
      "type": "event"
    },
    {
      "anonymous": false,
      "inputs": [
        {
          "indexed": true,
          "internalType": "address",
          "name": "previousOwner",
          "type": "address"
        },
        {
          "indexed": true,
          "internalType": "address",
          "name": "newOwner",
          "type": "address"
        }
      ],
      "name": "OwnershipTransferStarted",
      "type": "event"
    },
    {
      "anonymous": false,
      "inputs": [
        {
          "indexed": true,
          "internalType": "address",
          "name": "previousOwner",
          "type": "address"
        },
        {
          "indexed": true,
          "internalType": "address",
          "name": "newOwner",
          "type": "address"
        }
      ],
      "name": "OwnershipTransferred",
      "type": "event"
    },
    {
      "anonymous": false,
      "inputs": [
        {
          "indexed": true,
          "internalType": "bytes32",
          "name": "messageId",
          "type": "bytes32"
        },
        {
          "indexed": true,
          "internalType": "uint256",
          "name": "chainId",
          "type": "uint256"
        },
        {
          "indexed": false,
          "internalType": "uint256",
          "name": "amount",
          "type": "uint256"
        },
        {
          "indexed": false,
          "internalType": "uint256",
          "name": "initChampion",
          "type": "uint256"
        },
        {
          "indexed": false,
          "internalType": "uint256",
          "name": "initAmount",
          "type": "uint256"
        },
        {
          "indexed": false,
          "internalType": "uint256",
          "name": "laterChainpion",
          "type": "uint256"
        },
        {
          "indexed": false,
          "internalType": "uint256",
          "name": "laterAmount",
          "type": "uint256"
        }
      ],
      "name": "SoldiersArrive",
      "type": "event"
    },
    {
      "anonymous": false,
      "inputs": [
        {
          "indexed": true,
          "internalType": "address",
          "name": "implementation",
          "type": "address"
        }
      ],
      "name": "Upgraded",
      "type": "event"
    },
    {
      "inputs": [],
      "name": "UPGRADE_INTERFACE_VERSION",
      "outputs": [
        {
          "internalType": "string",
          "name": "",
          "type": "string"
        }
      ],
      "stateMutability": "view",
      "type": "function"
    },
    {
      "inputs": [],
      "name": "acceptOwnership",
      "outputs": [],
      "stateMutability": "nonpayable",
      "type": "function"
    },
    {
      "inputs": [
        {
          "components": [
            {
              "internalType": "bytes32",
              "name": "messageId",
              "type": "bytes32"
            },
            {
              "internalType": "uint64",
              "name": "sourceChainSelector",
              "type": "uint64"
            },
            {
              "internalType": "bytes",
              "name": "sender",
              "type": "bytes"
            },
            {
              "internalType": "bytes",
              "name": "data",
              "type": "bytes"
            },
            {
              "components": [
                {
                  "internalType": "address",
                  "name": "token",
                  "type": "address"
                },
                {
                  "internalType": "uint256",
                  "name": "amount",
                  "type": "uint256"
                }
              ],
              "internalType": "struct Client.EVMTokenAmount[]",
              "name": "destTokenAmounts",
              "type": "tuple[]"
            }
          ],
          "internalType": "struct Client.Any2EVMMessage",
          "name": "message",
          "type": "tuple"
        }
      ],
      "name": "ccipReceive",
      "outputs": [],
      "stateMutability": "nonpayable",
      "type": "function"
    },
    {
      "inputs": [],
      "name": "getRouter",
      "outputs": [
        {
          "internalType": "address",
          "name": "",
          "type": "address"
        }
      ],
      "stateMutability": "view",
      "type": "function"
    },
    {
      "inputs": [
        {
          "internalType": "address",
          "name": "owner_",
          "type": "address"
        },
        {
          "internalType": "address",
          "name": "router_",
          "type": "address"
        }
      ],
      "name": "initialize",
      "outputs": [],
      "stateMutability": "nonpayable",
      "type": "function"
    },
    {
      "inputs": [
        {
          "internalType": "bytes32",
          "name": "messageId",
          "type": "bytes32"
        }
      ],
      "name": "isMessageIdFulFilled",
      "outputs": [
        {
          "internalType": "bool",
          "name": "",
          "type": "bool"
        }
      ],
      "stateMutability": "view",
      "type": "function"
    },
    {
      "inputs": [],
      "name": "owner",
      "outputs": [
        {
          "internalType": "address",
          "name": "",
          "type": "address"
        }
      ],
      "stateMutability": "view",
      "type": "function"
    },
    {
      "inputs": [],
      "name": "pendingOwner",
      "outputs": [
        {
          "internalType": "address",
          "name": "",
          "type": "address"
        }
      ],
      "stateMutability": "view",
      "type": "function"
    },
    {
      "inputs": [],
      "name": "proxiableUUID",
      "outputs": [
        {
          "internalType": "bytes32",
          "name": "",
          "type": "bytes32"
        }
      ],
      "stateMutability": "view",
      "type": "function"
    },
    {
      "inputs": [],
      "name": "readStorageValue",
      "outputs": [
        {
          "internalType": "uint256",
          "name": "championChainId",
          "type": "uint256"
        },
        {
          "internalType": "uint256",
          "name": "soldierAmount",
          "type": "uint256"
        }
      ],
      "stateMutability": "view",
      "type": "function"
    },
    {
      "inputs": [],
      "name": "renounceOwnership",
      "outputs": [],
      "stateMutability": "nonpayable",
      "type": "function"
    },
    {
      "inputs": [
        {
          "internalType": "bytes4",
          "name": "interfaceId",
          "type": "bytes4"
        }
      ],
      "name": "supportsInterface",
      "outputs": [
        {
          "internalType": "bool",
          "name": "",
          "type": "bool"
        }
      ],
      "stateMutability": "pure",
      "type": "function"
    },
    {
      "inputs": [
        {
          "internalType": "address",
          "name": "newOwner",
          "type": "address"
        }
      ],
      "name": "transferOwnership",
      "outputs": [],
      "stateMutability": "nonpayable",
      "type": "function"
    },
    {
      "inputs": [
        {
          "internalType": "address",
          "name": "newImplementation",
          "type": "address"
        },
        {
          "internalType": "bytes",
          "name": "data",
          "type": "bytes"
        }
      ],
      "name": "upgradeToAndCall",
      "outputs": [],
      "stateMutability": "payable",
      "type": "function"
    }
  ],
  "transactionHash": "0x72785ae1744a42aa3ca5f939902dbd5a6765ce7aec804084e897c17d97be234c",
  "args": [],
  "numDeployments": 3,
  "solcInputHash": "e2d2d8d7e9b834e8c11cd8a9afc9aecd",
  "bytecode": "0x60a06040523073ffffffffffffffffffffffffffffffffffffffff1660809073ffffffffffffffffffffffffffffffffffffffff16815250348015604257600080fd5b50608051611dbe61006c60003960008181610a7701528181610acc0152610c870152611dbe6000f3fe6080604052600436106100dd5760003560e01c806385572ffb1161007f578063b0f479a111610059578063b0f479a114610279578063e30c3978146102a4578063f2fde38b146102cf578063f4fbc82d146102f8576100dd565b806385572ffb146101fa5780638da5cb5b14610223578063ad3cb1cc1461024e576100dd565b80634f1ef286116100bb5780634f1ef2861461018557806352d1902d146101a1578063715018a6146101cc57806379ba5097146101e3576100dd565b806301ffc9a7146100e257806317533fb21461011f578063485cc9551461015c575b600080fd5b3480156100ee57600080fd5b50610109600480360381019061010491906113f1565b610324565b6040516101169190611439565b60405180910390f35b34801561012b57600080fd5b506101466004803603810190610141919061148a565b6103f6565b6040516101539190611439565b60405180910390f35b34801561016857600080fd5b50610183600480360381019061017e9190611515565b61042e565b005b61019f600480360381019061019a919061169b565b6105c7565b005b3480156101ad57600080fd5b506101b66105e6565b6040516101c39190611706565b60405180910390f35b3480156101d857600080fd5b506101e1610619565b005b3480156101ef57600080fd5b506101f861062d565b005b34801561020657600080fd5b50610221600480360381019061021c9190611745565b6106bc565b005b34801561022f57600080fd5b5061023861076c565b604051610245919061179d565b60405180910390f35b34801561025a57600080fd5b506102636107a4565b6040516102709190611837565b60405180910390f35b34801561028557600080fd5b5061028e6107dd565b60405161029b919061179d565b60405180910390f35b3480156102b057600080fd5b506102b9610810565b6040516102c6919061179d565b60405180910390f35b3480156102db57600080fd5b506102f660048036038101906102f19190611859565b610848565b005b34801561030457600080fd5b5061030d610904565b60405161031b92919061189f565b60405180910390f35b60007f85572ffb000000000000000000000000000000000000000000000000000000007bffffffffffffffffffffffffffffffffffffffffffffffffffffffff1916827bffffffffffffffffffffffffffffffffffffffffffffffffffffffff191614806103ef57507f01ffc9a7000000000000000000000000000000000000000000000000000000007bffffffffffffffffffffffffffffffffffffffffffffffffffffffff1916827bffffffffffffffffffffffffffffffffffffffffffffffffffffffff1916145b9050919050565b600080610401610926565b905080600201600084815260200190815260200160002060009054906101000a900460ff16915050919050565b600061043861094e565b905060008160000160089054906101000a900460ff1615905060008260000160009054906101000a900467ffffffffffffffff1690506000808267ffffffffffffffff161480156104865750825b9050600060018367ffffffffffffffff161480156104bb575060003073ffffffffffffffffffffffffffffffffffffffff163b145b9050811580156104c9575080155b15610500576040517ff92ee8a900000000000000000000000000000000000000000000000000000000815260040160405180910390fd5b60018560000160006101000a81548167ffffffffffffffff021916908367ffffffffffffffff16021790555083156105505760018560000160086101000a81548160ff0219169083151502179055505b61055987610976565b610562866109b6565b83156105be5760008560000160086101000a81548160ff0219169083151502179055507fc7f505b2f371ae2175ee4913f4499e1f2633a7b5936321eed1cdaeb6115181d260016040516105b59190611921565b60405180910390a15b50505050505050565b6105cf610a75565b6105d882610b5b565b6105e28282610b66565b5050565b60006105f0610c85565b7f360894a13ba1a3210667c828492db98dca3e2076cc3735a920a3ca505d382bbc60001b905090565b610621610d0c565b61062b6000610976565b565b6000610637610d93565b90508073ffffffffffffffffffffffffffffffffffffffff16610658610810565b73ffffffffffffffffffffffffffffffffffffffff16146106b057806040517f118cdaa70000000000000000000000000000000000000000000000000000000081526004016106a7919061179d565b60405180910390fd5b6106b981610976565b50565b6106c4610d9b565b60000160009054906101000a900473ffffffffffffffffffffffffffffffffffffffff1673ffffffffffffffffffffffffffffffffffffffff163373ffffffffffffffffffffffffffffffffffffffff161461075757336040517fd7f7333400000000000000000000000000000000000000000000000000000000815260040161074e919061179d565b60405180910390fd5b6107698161076490611b96565b610dc3565b50565b600080610777610f28565b90508060000160009054906101000a900473ffffffffffffffffffffffffffffffffffffffff1691505090565b6040518060400160405280600581526020017f352e302e3000000000000000000000000000000000000000000000000000000081525081565b60006107e7610d9b565b60000160009054906101000a900473ffffffffffffffffffffffffffffffffffffffff16905090565b60008061081b610f50565b90508060000160009054906101000a900473ffffffffffffffffffffffffffffffffffffffff1691505090565b610850610d0c565b600061085a610f50565b9050818160000160006101000a81548173ffffffffffffffffffffffffffffffffffffffff021916908373ffffffffffffffffffffffffffffffffffffffff1602179055508173ffffffffffffffffffffffffffffffffffffffff166108be61076c565b73ffffffffffffffffffffffffffffffffffffffff167f38d16b8cac22d99fc7c124b9cd0de2d3fa1faef420bfe791d8c362d765e2270060405160405180910390a35050565b6000806000610911610926565b90508060000154816001015492509250509091565b60007fdd3df5464778d98b8f59c24d166861cc7b36f749c939a9173f338d95c7f4fe00905090565b60007ff0c57e16840df040f15088dc2f81fe391c3923bec73e23a9662efc9c229c6a00905090565b6000610980610f50565b90508060000160006101000a81549073ffffffffffffffffffffffffffffffffffffffff02191690556109b282610f78565b5050565b600073ffffffffffffffffffffffffffffffffffffffff168173ffffffffffffffffffffffffffffffffffffffff1603610a285760006040517fd7f73334000000000000000000000000000000000000000000000000000000008152600401610a1f919061179d565b60405180910390fd5b80610a31610d9b565b60000160006101000a81548173ffffffffffffffffffffffffffffffffffffffff021916908373ffffffffffffffffffffffffffffffffffffffff16021790555050565b7f000000000000000000000000000000000000000000000000000000000000000073ffffffffffffffffffffffffffffffffffffffff163073ffffffffffffffffffffffffffffffffffffffff161480610b2257507f000000000000000000000000000000000000000000000000000000000000000073ffffffffffffffffffffffffffffffffffffffff16610b0961104f565b73ffffffffffffffffffffffffffffffffffffffff1614155b15610b59576040517fe07c8dba00000000000000000000000000000000000000000000000000000000815260040160405180910390fd5b565b610b63610d0c565b50565b8173ffffffffffffffffffffffffffffffffffffffff166352d1902d6040518163ffffffff1660e01b8152600401602060405180830381865afa925050508015610bce57506040513d601f19601f82011682018060405250810190610bcb9190611bbe565b60015b610c0f57816040517f4c9c8ce3000000000000000000000000000000000000000000000000000000008152600401610c06919061179d565b60405180910390fd5b7f360894a13ba1a3210667c828492db98dca3e2076cc3735a920a3ca505d382bbc60001b8114610c7657806040517faa1d49a4000000000000000000000000000000000000000000000000000000008152600401610c6d9190611706565b60405180910390fd5b610c8083836110a6565b505050565b7f000000000000000000000000000000000000000000000000000000000000000073ffffffffffffffffffffffffffffffffffffffff163073ffffffffffffffffffffffffffffffffffffffff1614610d0a576040517fe07c8dba00000000000000000000000000000000000000000000000000000000815260040160405180910390fd5b565b610d14610d93565b73ffffffffffffffffffffffffffffffffffffffff16610d3261076c565b73ffffffffffffffffffffffffffffffffffffffff1614610d9157610d55610d93565b6040517f118cdaa7000000000000000000000000000000000000000000000000000000008152600401610d88919061179d565b60405180910390fd5b565b600033905090565b60007fb9605d6807cee7e996cb505aab0fff682142fb832cd7587ec7f7258d80300000905090565b6000808260600151806020019051810190610dde9190611c00565b915091506000610dec610926565b6000015490506000610dfc610926565b600101549050818403610e305782610e12610926565b6001016000828254610e249190611c6f565b92505081905550610e8b565b828110610e5e5782610e40610926565b6001016000828254610e529190611c6f565b92505081905550610e8a565b8083610e6a9190611ca3565b610e72610926565b6001018190555083610e82610926565b600001819055505b5b6000856000015190506001610e9e610926565b600201600083815260200190815260200160002060006101000a81548160ff02191690831515021790555084817f600358b32b626d1e1f87256ae7f10937b8566732c6adfd435a0950f4e276ce2f868686610ef7610926565b60000154610f03610926565b60010154604051610f18959493929190611cd7565b60405180910390a3505050505050565b60007f9016d09d72d40fdae2fd8ceac6b6234c7706214fd39c1cd1e609a0528c199300905090565b60007f237e158222e3e6968b72b9db0d8043aacf074ad9f650f0d1606b4d82ee432c00905090565b6000610f82610f28565b905060008160000160009054906101000a900473ffffffffffffffffffffffffffffffffffffffff169050828260000160006101000a81548173ffffffffffffffffffffffffffffffffffffffff021916908373ffffffffffffffffffffffffffffffffffffffff1602179055508273ffffffffffffffffffffffffffffffffffffffff168173ffffffffffffffffffffffffffffffffffffffff167f8be0079c531659141344cd1fd0a4f28419497f9722a3daafe3b4186f6b6457e060405160405180910390a3505050565b600061107d7f360894a13ba1a3210667c828492db98dca3e2076cc3735a920a3ca505d382bbc60001b611119565b60000160009054906101000a900473ffffffffffffffffffffffffffffffffffffffff16905090565b6110af82611123565b8173ffffffffffffffffffffffffffffffffffffffff167fbc7cd75a20ee27fd9adebab32041f755214dbc6bffa90cc0225b39da2e5c2d3b60405160405180910390a260008151111561110c5761110682826111f0565b50611115565b611114611274565b5b5050565b6000819050919050565b60008173ffffffffffffffffffffffffffffffffffffffff163b0361117f57806040517f4c9c8ce3000000000000000000000000000000000000000000000000000000008152600401611176919061179d565b60405180910390fd5b806111ac7f360894a13ba1a3210667c828492db98dca3e2076cc3735a920a3ca505d382bbc60001b611119565b60000160006101000a81548173ffffffffffffffffffffffffffffffffffffffff021916908373ffffffffffffffffffffffffffffffffffffffff16021790555050565b60606000808473ffffffffffffffffffffffffffffffffffffffff168460405161121a9190611d71565b600060405180830381855af49150503d8060008114611255576040519150601f19603f3d011682016040523d82523d6000602084013e61125a565b606091505b509150915061126a8583836112b1565b9250505092915050565b60003411156112af576040517fb398979f00000000000000000000000000000000000000000000000000000000815260040160405180910390fd5b565b6060826112c6576112c182611340565b611338565b600082511480156112ee575060008473ffffffffffffffffffffffffffffffffffffffff163b145b1561133057836040517f9996b315000000000000000000000000000000000000000000000000000000008152600401611327919061179d565b60405180910390fd5b819050611339565b5b9392505050565b6000815111156113535780518082602001fd5b6040517f1425ea4200000000000000000000000000000000000000000000000000000000815260040160405180910390fd5b6000604051905090565b600080fd5b600080fd5b60007fffffffff0000000000000000000000000000000000000000000000000000000082169050919050565b6113ce81611399565b81146113d957600080fd5b50565b6000813590506113eb816113c5565b92915050565b6000602082840312156114075761140661138f565b5b6000611415848285016113dc565b91505092915050565b60008115159050919050565b6114338161141e565b82525050565b600060208201905061144e600083018461142a565b92915050565b6000819050919050565b61146781611454565b811461147257600080fd5b50565b6000813590506114848161145e565b92915050565b6000602082840312156114a05761149f61138f565b5b60006114ae84828501611475565b91505092915050565b600073ffffffffffffffffffffffffffffffffffffffff82169050919050565b60006114e2826114b7565b9050919050565b6114f2816114d7565b81146114fd57600080fd5b50565b60008135905061150f816114e9565b92915050565b6000806040838503121561152c5761152b61138f565b5b600061153a85828601611500565b925050602061154b85828601611500565b9150509250929050565b600080fd5b600080fd5b6000601f19601f8301169050919050565b7f4e487b7100000000000000000000000000000000000000000000000000000000600052604160045260246000fd5b6115a88261155f565b810181811067ffffffffffffffff821117156115c7576115c6611570565b5b80604052505050565b60006115da611385565b90506115e6828261159f565b919050565b600067ffffffffffffffff82111561160657611605611570565b5b61160f8261155f565b9050602081019050919050565b82818337600083830152505050565b600061163e611639846115eb565b6115d0565b90508281526020810184848401111561165a5761165961155a565b5b61166584828561161c565b509392505050565b600082601f83011261168257611681611555565b5b813561169284826020860161162b565b91505092915050565b600080604083850312156116b2576116b161138f565b5b60006116c085828601611500565b925050602083013567ffffffffffffffff8111156116e1576116e0611394565b5b6116ed8582860161166d565b9150509250929050565b61170081611454565b82525050565b600060208201905061171b60008301846116f7565b92915050565b600080fd5b600060a0828403121561173c5761173b611721565b5b81905092915050565b60006020828403121561175b5761175a61138f565b5b600082013567ffffffffffffffff81111561177957611778611394565b5b61178584828501611726565b91505092915050565b611797816114d7565b82525050565b60006020820190506117b2600083018461178e565b92915050565b600081519050919050565b600082825260208201905092915050565b60005b838110156117f25780820151818401526020810190506117d7565b60008484015250505050565b6000611809826117b8565b61181381856117c3565b93506118238185602086016117d4565b61182c8161155f565b840191505092915050565b6000602082019050818103600083015261185181846117fe565b905092915050565b60006020828403121561186f5761186e61138f565b5b600061187d84828501611500565b91505092915050565b6000819050919050565b61189981611886565b82525050565b60006040820190506118b46000830185611890565b6118c16020830184611890565b9392505050565b6000819050919050565b600067ffffffffffffffff82169050919050565b6000819050919050565b600061190b611906611901846118c8565b6118e6565b6118d2565b9050919050565b61191b816118f0565b82525050565b60006020820190506119366000830184611912565b92915050565b600080fd5b600080fd5b61194f816118d2565b811461195a57600080fd5b50565b60008135905061196c81611946565b92915050565b600067ffffffffffffffff82111561198d5761198c611570565b5b602082029050602081019050919050565b600080fd5b6119ac81611886565b81146119b757600080fd5b50565b6000813590506119c9816119a3565b92915050565b6000604082840312156119e5576119e461193c565b5b6119ef60406115d0565b905060006119ff84828501611500565b6000830152506020611a13848285016119ba565b60208301525092915050565b6000611a32611a2d84611972565b6115d0565b90508083825260208201905060408402830185811115611a5557611a5461199e565b5b835b81811015611a7e5780611a6a88826119cf565b845260208401935050604081019050611a57565b5050509392505050565b600082601f830112611a9d57611a9c611555565b5b8135611aad848260208601611a1f565b91505092915050565b600060a08284031215611acc57611acb61193c565b5b611ad660a06115d0565b90506000611ae684828501611475565b6000830152506020611afa8482850161195d565b602083015250604082013567ffffffffffffffff811115611b1e57611b1d611941565b5b611b2a8482850161166d565b604083015250606082013567ffffffffffffffff811115611b4e57611b4d611941565b5b611b5a8482850161166d565b606083015250608082013567ffffffffffffffff811115611b7e57611b7d611941565b5b611b8a84828501611a88565b60808301525092915050565b6000611ba23683611ab6565b9050919050565b600081519050611bb88161145e565b92915050565b600060208284031215611bd457611bd361138f565b5b6000611be284828501611ba9565b91505092915050565b600081519050611bfa816119a3565b92915050565b60008060408385031215611c1757611c1661138f565b5b6000611c2585828601611beb565b9250506020611c3685828601611beb565b9150509250929050565b7f4e487b7100000000000000000000000000000000000000000000000000000000600052601160045260246000fd5b6000611c7a82611886565b9150611c8583611886565b9250828201905080821115611c9d57611c9c611c40565b5b92915050565b6000611cae82611886565b9150611cb983611886565b9250828203905081811115611cd157611cd0611c40565b5b92915050565b600060a082019050611cec6000830188611890565b611cf96020830187611890565b611d066040830186611890565b611d136060830185611890565b611d206080830184611890565b9695505050505050565b600081519050919050565b600081905092915050565b6000611d4b82611d2a565b611d558185611d35565b9350611d658185602086016117d4565b80840191505092915050565b6000611d7d8284611d40565b91508190509291505056fea26469706673582212206a0c7a6ff38c8d0d80f59a63ab7aa636147732f39c954b0f634d450c6fcd62cd64736f6c63430008190033",
  "devdoc": {
    "errors": {
      "AddressEmptyCode(address)": [
        {
          "details": "There's no code at `target` (it is not a contract)."
        }
      ],
      "ERC1967InvalidImplementation(address)": [
        {
          "details": "The `implementation` of the proxy is invalid."
        }
      ],
      "ERC1967NonPayable()": [
        {
          "details": "An upgrade function sees `msg.value > 0` that may be lost."
        }
      ],
      "FailedInnerCall()": [
        {
          "details": "A call to an address target failed. The target may have reverted."
        }
      ],
      "InvalidInitialization()": [
        {
          "details": "The contract is already initialized."
        }
      ],
      "NotInitializing()": [
        {
          "details": "The contract is not initializing."
        }
      ],
      "OwnableInvalidOwner(address)": [
        {
          "details": "The owner is not a valid owner account. (eg. `address(0)`)"
        }
      ],
      "OwnableUnauthorizedAccount(address)": [
        {
          "details": "The caller account is not authorized to perform an operation."
        }
      ],
      "UUPSUnauthorizedCallContext()": [
        {
          "details": "The call is from an unauthorized context."
        }
      ],
      "UUPSUnsupportedProxiableUUID(bytes32)": [
        {
          "details": "The storage `slot` is unsupported as a UUID."
        }
      ]
    },
    "events": {
      "Initialized(uint64)": {
        "details": "Triggered when the contract has been initialized or reinitialized."
      },
      "Upgraded(address)": {
        "details": "Emitted when the implementation is upgraded."
      }
    },
    "kind": "dev",
    "methods": {
      "acceptOwnership()": {
        "details": "The new owner accepts the ownership transfer."
      },
      "ccipReceive((bytes32,uint64,bytes,bytes,(address,uint256)[]))": {
        "details": "Note ensure you check the msg.sender is the OffRampRouter",
        "params": {
          "message": "CCIP Message"
        }
      },
      "getRouter()": {
        "returns": {
          "_0": "CCIP router address"
        }
      },
      "owner()": {
        "details": "Returns the address of the current owner."
      },
      "pendingOwner()": {
        "details": "Returns the address of the pending owner."
      },
      "proxiableUUID()": {
        "details": "Implementation of the ERC1822 {proxiableUUID} function. This returns the storage slot used by the implementation. It is used to validate the implementation's compatibility when performing an upgrade. IMPORTANT: A proxy pointing at a proxiable contract should not be considered proxiable itself, because this risks bricking a proxy that upgrades to it, by delegating to itself until out of gas. Thus it is critical that this function revert if invoked through a proxy. This is guaranteed by the `notDelegated` modifier."
      },
      "renounceOwnership()": {
        "details": "Leaves the contract without owner. It will not be possible to call `onlyOwner` functions. Can only be called by the current owner. NOTE: Renouncing ownership will leave the contract without an owner, thereby disabling any functionality that is only available to the owner."
      },
      "supportsInterface(bytes4)": {
        "details": "Should indicate whether the contract implements IAny2EVMMessageReceiver e.g. return interfaceId == type(IAny2EVMMessageReceiver).interfaceId || interfaceId == type(IERC165).interfaceId This allows CCIP to check if ccipReceive is available before calling it. If this returns false or reverts, only tokens are transferred to the receiver. If this returns true, tokens are transferred and ccipReceive is called atomically. Additionally, if the receiver address does not have code associated with it at the time of execution (EXTCODESIZE returns 0), only tokens will be transferred.",
        "params": {
          "interfaceId": "The interfaceId to check"
        },
        "returns": {
          "_0": "true if the interfaceId is supported"
        }
      },
      "transferOwnership(address)": {
        "details": "Starts the ownership transfer of the contract to a new account. Replaces the pending transfer if there is one. Can only be called by the current owner."
      },
      "upgradeToAndCall(address,bytes)": {
        "custom:oz-upgrades-unsafe-allow-reachable": "delegatecall",
        "details": "Upgrade the implementation of the proxy to `newImplementation`, and subsequently execute the function call encoded in `data`. Calls {_authorizeUpgrade}. Emits an {Upgraded} event."
      }
    },
    "version": 1
  },
  "userdoc": {
    "kind": "user",
    "methods": {
      "ccipReceive((bytes32,uint64,bytes,bytes,(address,uint256)[]))": {
        "notice": "Called by the Router to deliver a message. If this reverts, any token transfers also revert. The message will move to a FAILED state and become available for manual execution."
      },
      "getRouter()": {
        "notice": "Return the current router"
      },
      "supportsInterface(bytes4)": {
        "notice": "IERC165 supports an interfaceId"
      }
    },
    "version": 1
  },
  "storageLayout": {
    "storage": [],
    "types": null
  }
}