{
  "address": "0x324E0F328747fDe1c85ae4ab3e6be41d2199b531",
  "abi": [
    {
      "inputs": [
        {
          "internalType": "address",
          "name": "target",
          "type": "address"
        }
      ],
      "name": "AddressEmptyCode",
      "type": "error"
    },
    {
      "inputs": [
        {
          "internalType": "address",
          "name": "implementation",
          "type": "address"
        }
      ],
      "name": "ERC1967InvalidImplementation",
      "type": "error"
    },
    {
      "inputs": [],
      "name": "ERC1967NonPayable",
      "type": "error"
    },
    {
      "inputs": [],
      "name": "FailedInnerCall",
      "type": "error"
    },
    {
      "inputs": [],
      "name": "InvalidInitialization",
      "type": "error"
    },
    {
      "inputs": [
        {
          "internalType": "address",
          "name": "router",
          "type": "address"
        }
      ],
      "name": "InvalidRouter",
      "type": "error"
    },
    {
      "inputs": [],
      "name": "NotInitializing",
      "type": "error"
    },
    {
      "inputs": [
        {
          "internalType": "address",
          "name": "owner",
          "type": "address"
        }
      ],
      "name": "OwnableInvalidOwner",
      "type": "error"
    },
    {
      "inputs": [
        {
          "internalType": "address",
          "name": "account",
          "type": "address"
        }
      ],
      "name": "OwnableUnauthorizedAccount",
      "type": "error"
    },
    {
      "inputs": [],
      "name": "UUPSUnauthorizedCallContext",
      "type": "error"
    },
    {
      "inputs": [
        {
          "internalType": "bytes32",
          "name": "slot",
          "type": "bytes32"
        }
      ],
      "name": "UUPSUnsupportedProxiableUUID",
      "type": "error"
    },
    {
      "anonymous": false,
      "inputs": [
        {
          "indexed": false,
          "internalType": "uint64",
          "name": "version",
          "type": "uint64"
        }
      ],
      "name": "Initialized",
      "type": "event"
    },
    {
      "anonymous": false,
      "inputs": [
        {
          "indexed": true,
          "internalType": "address",
          "name": "previousOwner",
          "type": "address"
        },
        {
          "indexed": true,
          "internalType": "address",
          "name": "newOwner",
          "type": "address"
        }
      ],
      "name": "OwnershipTransferStarted",
      "type": "event"
    },
    {
      "anonymous": false,
      "inputs": [
        {
          "indexed": true,
          "internalType": "address",
          "name": "previousOwner",
          "type": "address"
        },
        {
          "indexed": true,
          "internalType": "address",
          "name": "newOwner",
          "type": "address"
        }
      ],
      "name": "OwnershipTransferred",
      "type": "event"
    },
    {
      "anonymous": false,
      "inputs": [
        {
          "indexed": true,
          "internalType": "bytes32",
          "name": "messageId",
          "type": "bytes32"
        },
        {
          "indexed": true,
          "internalType": "uint256",
          "name": "chainId",
          "type": "uint256"
        },
        {
          "indexed": false,
          "internalType": "uint256",
          "name": "amount",
          "type": "uint256"
        },
        {
          "indexed": false,
          "internalType": "uint256",
          "name": "initChampion",
          "type": "uint256"
        },
        {
          "indexed": false,
          "internalType": "uint256",
          "name": "initAmount",
          "type": "uint256"
        },
        {
          "indexed": false,
          "internalType": "uint256",
          "name": "laterChainpion",
          "type": "uint256"
        },
        {
          "indexed": false,
          "internalType": "uint256",
          "name": "laterAmount",
          "type": "uint256"
        }
      ],
      "name": "SoldiersArrive",
      "type": "event"
    },
    {
      "anonymous": false,
      "inputs": [
        {
          "indexed": true,
          "internalType": "address",
          "name": "implementation",
          "type": "address"
        }
      ],
      "name": "Upgraded",
      "type": "event"
    },
    {
      "inputs": [],
      "name": "UPGRADE_INTERFACE_VERSION",
      "outputs": [
        {
          "internalType": "string",
          "name": "",
          "type": "string"
        }
      ],
      "stateMutability": "view",
      "type": "function"
    },
    {
      "inputs": [],
      "name": "acceptOwnership",
      "outputs": [],
      "stateMutability": "nonpayable",
      "type": "function"
    },
    {
      "inputs": [
        {
          "components": [
            {
              "internalType": "bytes32",
              "name": "messageId",
              "type": "bytes32"
            },
            {
              "internalType": "uint64",
              "name": "sourceChainSelector",
              "type": "uint64"
            },
            {
              "internalType": "bytes",
              "name": "sender",
              "type": "bytes"
            },
            {
              "internalType": "bytes",
              "name": "data",
              "type": "bytes"
            },
            {
              "components": [
                {
                  "internalType": "address",
                  "name": "token",
                  "type": "address"
                },
                {
                  "internalType": "uint256",
                  "name": "amount",
                  "type": "uint256"
                }
              ],
              "internalType": "struct Client.EVMTokenAmount[]",
              "name": "destTokenAmounts",
              "type": "tuple[]"
            }
          ],
          "internalType": "struct Client.Any2EVMMessage",
          "name": "message",
          "type": "tuple"
        }
      ],
      "name": "ccipReceive",
      "outputs": [],
      "stateMutability": "nonpayable",
      "type": "function"
    },
    {
      "inputs": [],
      "name": "getRouter",
      "outputs": [
        {
          "internalType": "address",
          "name": "",
          "type": "address"
        }
      ],
      "stateMutability": "view",
      "type": "function"
    },
    {
      "inputs": [
        {
          "internalType": "address",
          "name": "owner_",
          "type": "address"
        },
        {
          "internalType": "address",
          "name": "router_",
          "type": "address"
        }
      ],
      "name": "initialize",
      "outputs": [],
      "stateMutability": "nonpayable",
      "type": "function"
    },
    {
      "inputs": [],
      "name": "owner",
      "outputs": [
        {
          "internalType": "address",
          "name": "",
          "type": "address"
        }
      ],
      "stateMutability": "view",
      "type": "function"
    },
    {
      "inputs": [],
      "name": "pendingOwner",
      "outputs": [
        {
          "internalType": "address",
          "name": "",
          "type": "address"
        }
      ],
      "stateMutability": "view",
      "type": "function"
    },
    {
      "inputs": [],
      "name": "proxiableUUID",
      "outputs": [
        {
          "internalType": "bytes32",
          "name": "",
          "type": "bytes32"
        }
      ],
      "stateMutability": "view",
      "type": "function"
    },
    {
      "inputs": [],
      "name": "readStorageValue",
      "outputs": [
        {
          "internalType": "uint256",
          "name": "championChainId",
          "type": "uint256"
        },
        {
          "internalType": "uint256",
          "name": "soldierAmount",
          "type": "uint256"
        }
      ],
      "stateMutability": "view",
      "type": "function"
    },
    {
      "inputs": [],
      "name": "renounceOwnership",
      "outputs": [],
      "stateMutability": "nonpayable",
      "type": "function"
    },
    {
      "inputs": [
        {
          "internalType": "bytes4",
          "name": "interfaceId",
          "type": "bytes4"
        }
      ],
      "name": "supportsInterface",
      "outputs": [
        {
          "internalType": "bool",
          "name": "",
          "type": "bool"
        }
      ],
      "stateMutability": "pure",
      "type": "function"
    },
    {
      "inputs": [
        {
          "internalType": "address",
          "name": "newOwner",
          "type": "address"
        }
      ],
      "name": "transferOwnership",
      "outputs": [],
      "stateMutability": "nonpayable",
      "type": "function"
    },
    {
      "inputs": [
        {
          "internalType": "address",
          "name": "newImplementation",
          "type": "address"
        },
        {
          "internalType": "bytes",
          "name": "data",
          "type": "bytes"
        }
      ],
      "name": "upgradeToAndCall",
      "outputs": [],
      "stateMutability": "payable",
      "type": "function"
    }
  ],
  "transactionHash": "0x082036a8f9e8d8c1bd39c43b550a7df3a0cfe5afce024c7e4651f7937447d108",
  "args": [],
  "numDeployments": 2,
  "solcInputHash": "86553fa33190fac9aa8af37b99fca697",
  "bytecode": "0x60a06040523073ffffffffffffffffffffffffffffffffffffffff1660809073ffffffffffffffffffffffffffffffffffffffff16815250348015604257600080fd5b50608051611d0161006c600039600081816109bf01528181610a140152610bcf0152611d016000f3fe6080604052600436106100c25760003560e01c806385572ffb1161007f578063b0f479a111610059578063b0f479a114610221578063e30c39781461024c578063f2fde38b14610277578063f4fbc82d146102a0576100c2565b806385572ffb146101a25780638da5cb5b146101cb578063ad3cb1cc146101f6576100c2565b806301ffc9a7146100c7578063485cc955146101045780634f1ef2861461012d57806352d1902d14610149578063715018a61461017457806379ba50971461018b575b600080fd5b3480156100d357600080fd5b506100ee60048036038101906100e99190611361565b6102cc565b6040516100fb91906113a9565b60405180910390f35b34801561011057600080fd5b5061012b60048036038101906101269190611422565b61039e565b005b610147600480360381019061014291906115a8565b610537565b005b34801561015557600080fd5b5061015e610556565b60405161016b919061161d565b60405180910390f35b34801561018057600080fd5b50610189610589565b005b34801561019757600080fd5b506101a061059d565b005b3480156101ae57600080fd5b506101c960048036038101906101c4919061165c565b61062c565b005b3480156101d757600080fd5b506101e06106dc565b6040516101ed91906116b4565b60405180910390f35b34801561020257600080fd5b5061020b610714565b604051610218919061174e565b60405180910390f35b34801561022d57600080fd5b5061023661074d565b60405161024391906116b4565b60405180910390f35b34801561025857600080fd5b50610261610780565b60405161026e91906116b4565b60405180910390f35b34801561028357600080fd5b5061029e60048036038101906102999190611770565b6107b8565b005b3480156102ac57600080fd5b506102b5610874565b6040516102c39291906117b6565b60405180910390f35b60007f85572ffb000000000000000000000000000000000000000000000000000000007bffffffffffffffffffffffffffffffffffffffffffffffffffffffff1916827bffffffffffffffffffffffffffffffffffffffffffffffffffffffff1916148061039757507f01ffc9a7000000000000000000000000000000000000000000000000000000007bffffffffffffffffffffffffffffffffffffffffffffffffffffffff1916827bffffffffffffffffffffffffffffffffffffffffffffffffffffffff1916145b9050919050565b60006103a8610896565b905060008160000160089054906101000a900460ff1615905060008260000160009054906101000a900467ffffffffffffffff1690506000808267ffffffffffffffff161480156103f65750825b9050600060018367ffffffffffffffff1614801561042b575060003073ffffffffffffffffffffffffffffffffffffffff163b145b905081158015610439575080155b15610470576040517ff92ee8a900000000000000000000000000000000000000000000000000000000815260040160405180910390fd5b60018560000160006101000a81548167ffffffffffffffff021916908367ffffffffffffffff16021790555083156104c05760018560000160086101000a81548160ff0219169083151502179055505b6104c9876108be565b6104d2866108fe565b831561052e5760008560000160086101000a81548160ff0219169083151502179055507fc7f505b2f371ae2175ee4913f4499e1f2633a7b5936321eed1cdaeb6115181d260016040516105259190611838565b60405180910390a15b50505050505050565b61053f6109bd565b61054882610aa3565b6105528282610aae565b5050565b6000610560610bcd565b7f360894a13ba1a3210667c828492db98dca3e2076cc3735a920a3ca505d382bbc60001b905090565b610591610c54565b61059b60006108be565b565b60006105a7610cdb565b90508073ffffffffffffffffffffffffffffffffffffffff166105c8610780565b73ffffffffffffffffffffffffffffffffffffffff161461062057806040517f118cdaa700000000000000000000000000000000000000000000000000000000815260040161061791906116b4565b60405180910390fd5b610629816108be565b50565b610634610ce3565b60000160009054906101000a900473ffffffffffffffffffffffffffffffffffffffff1673ffffffffffffffffffffffffffffffffffffffff163373ffffffffffffffffffffffffffffffffffffffff16146106c757336040517fd7f733340000000000000000000000000000000000000000000000000000000081526004016106be91906116b4565b60405180910390fd5b6106d9816106d490611ad9565b610d0b565b50565b6000806106e7610e70565b90508060000160009054906101000a900473ffffffffffffffffffffffffffffffffffffffff1691505090565b6040518060400160405280600581526020017f352e302e3000000000000000000000000000000000000000000000000000000081525081565b6000610757610ce3565b60000160009054906101000a900473ffffffffffffffffffffffffffffffffffffffff16905090565b60008061078b610e98565b90508060000160009054906101000a900473ffffffffffffffffffffffffffffffffffffffff1691505090565b6107c0610c54565b60006107ca610e98565b9050818160000160006101000a81548173ffffffffffffffffffffffffffffffffffffffff021916908373ffffffffffffffffffffffffffffffffffffffff1602179055508173ffffffffffffffffffffffffffffffffffffffff1661082e6106dc565b73ffffffffffffffffffffffffffffffffffffffff167f38d16b8cac22d99fc7c124b9cd0de2d3fa1faef420bfe791d8c362d765e2270060405160405180910390a35050565b6000806000610881610ec0565b90508060000154816001015492509250509091565b60007ff0c57e16840df040f15088dc2f81fe391c3923bec73e23a9662efc9c229c6a00905090565b60006108c8610e98565b90508060000160006101000a81549073ffffffffffffffffffffffffffffffffffffffff02191690556108fa82610ee8565b5050565b600073ffffffffffffffffffffffffffffffffffffffff168173ffffffffffffffffffffffffffffffffffffffff16036109705760006040517fd7f7333400000000000000000000000000000000000000000000000000000000815260040161096791906116b4565b60405180910390fd5b80610979610ce3565b60000160006101000a81548173ffffffffffffffffffffffffffffffffffffffff021916908373ffffffffffffffffffffffffffffffffffffffff16021790555050565b7f000000000000000000000000000000000000000000000000000000000000000073ffffffffffffffffffffffffffffffffffffffff163073ffffffffffffffffffffffffffffffffffffffff161480610a6a57507f000000000000000000000000000000000000000000000000000000000000000073ffffffffffffffffffffffffffffffffffffffff16610a51610fbf565b73ffffffffffffffffffffffffffffffffffffffff1614155b15610aa1576040517fe07c8dba00000000000000000000000000000000000000000000000000000000815260040160405180910390fd5b565b610aab610c54565b50565b8173ffffffffffffffffffffffffffffffffffffffff166352d1902d6040518163ffffffff1660e01b8152600401602060405180830381865afa925050508015610b1657506040513d601f19601f82011682018060405250810190610b139190611b01565b60015b610b5757816040517f4c9c8ce3000000000000000000000000000000000000000000000000000000008152600401610b4e91906116b4565b60405180910390fd5b7f360894a13ba1a3210667c828492db98dca3e2076cc3735a920a3ca505d382bbc60001b8114610bbe57806040517faa1d49a4000000000000000000000000000000000000000000000000000000008152600401610bb5919061161d565b60405180910390fd5b610bc88383611016565b505050565b7f000000000000000000000000000000000000000000000000000000000000000073ffffffffffffffffffffffffffffffffffffffff163073ffffffffffffffffffffffffffffffffffffffff1614610c52576040517fe07c8dba00000000000000000000000000000000000000000000000000000000815260040160405180910390fd5b565b610c5c610cdb565b73ffffffffffffffffffffffffffffffffffffffff16610c7a6106dc565b73ffffffffffffffffffffffffffffffffffffffff1614610cd957610c9d610cdb565b6040517f118cdaa7000000000000000000000000000000000000000000000000000000008152600401610cd091906116b4565b60405180910390fd5b565b600033905090565b60007fb9605d6807cee7e996cb505aab0fff682142fb832cd7587ec7f7258d80300000905090565b6000808260600151806020019051810190610d269190611b43565b915091506000610d34610ec0565b6000015490506000610d44610ec0565b600101549050818403610d785782610d5a610ec0565b6001016000828254610d6c9190611bb2565b92505081905550610dd3565b828110610da65782610d88610ec0565b6001016000828254610d9a9190611bb2565b92505081905550610dd2565b8083610db29190611be6565b610dba610ec0565b6001018190555083610dca610ec0565b600001819055505b5b6000856000015190506001610de6610ec0565b600201600083815260200190815260200160002060006101000a81548160ff02191690831515021790555084817f600358b32b626d1e1f87256ae7f10937b8566732c6adfd435a0950f4e276ce2f868686610e3f610ec0565b60000154610e4b610ec0565b60010154604051610e60959493929190611c1a565b60405180910390a3505050505050565b60007f9016d09d72d40fdae2fd8ceac6b6234c7706214fd39c1cd1e609a0528c199300905090565b60007f237e158222e3e6968b72b9db0d8043aacf074ad9f650f0d1606b4d82ee432c00905090565b60007fdd3df5464778d98b8f59c24d166861cc7b36f749c939a9173f338d95c7f4fe00905090565b6000610ef2610e70565b905060008160000160009054906101000a900473ffffffffffffffffffffffffffffffffffffffff169050828260000160006101000a81548173ffffffffffffffffffffffffffffffffffffffff021916908373ffffffffffffffffffffffffffffffffffffffff1602179055508273ffffffffffffffffffffffffffffffffffffffff168173ffffffffffffffffffffffffffffffffffffffff167f8be0079c531659141344cd1fd0a4f28419497f9722a3daafe3b4186f6b6457e060405160405180910390a3505050565b6000610fed7f360894a13ba1a3210667c828492db98dca3e2076cc3735a920a3ca505d382bbc60001b611089565b60000160009054906101000a900473ffffffffffffffffffffffffffffffffffffffff16905090565b61101f82611093565b8173ffffffffffffffffffffffffffffffffffffffff167fbc7cd75a20ee27fd9adebab32041f755214dbc6bffa90cc0225b39da2e5c2d3b60405160405180910390a260008151111561107c576110768282611160565b50611085565b6110846111e4565b5b5050565b6000819050919050565b60008173ffffffffffffffffffffffffffffffffffffffff163b036110ef57806040517f4c9c8ce30000000000000000000000000000000000000000000000000000000081526004016110e691906116b4565b60405180910390fd5b8061111c7f360894a13ba1a3210667c828492db98dca3e2076cc3735a920a3ca505d382bbc60001b611089565b60000160006101000a81548173ffffffffffffffffffffffffffffffffffffffff021916908373ffffffffffffffffffffffffffffffffffffffff16021790555050565b60606000808473ffffffffffffffffffffffffffffffffffffffff168460405161118a9190611cb4565b600060405180830381855af49150503d80600081146111c5576040519150601f19603f3d011682016040523d82523d6000602084013e6111ca565b606091505b50915091506111da858383611221565b9250505092915050565b600034111561121f576040517fb398979f00000000000000000000000000000000000000000000000000000000815260040160405180910390fd5b565b60608261123657611231826112b0565b6112a8565b6000825114801561125e575060008473ffffffffffffffffffffffffffffffffffffffff163b145b156112a057836040517f9996b31500000000000000000000000000000000000000000000000000000000815260040161129791906116b4565b60405180910390fd5b8190506112a9565b5b9392505050565b6000815111156112c35780518082602001fd5b6040517f1425ea4200000000000000000000000000000000000000000000000000000000815260040160405180910390fd5b6000604051905090565b600080fd5b600080fd5b60007fffffffff0000000000000000000000000000000000000000000000000000000082169050919050565b61133e81611309565b811461134957600080fd5b50565b60008135905061135b81611335565b92915050565b600060208284031215611377576113766112ff565b5b60006113858482850161134c565b91505092915050565b60008115159050919050565b6113a38161138e565b82525050565b60006020820190506113be600083018461139a565b92915050565b600073ffffffffffffffffffffffffffffffffffffffff82169050919050565b60006113ef826113c4565b9050919050565b6113ff816113e4565b811461140a57600080fd5b50565b60008135905061141c816113f6565b92915050565b60008060408385031215611439576114386112ff565b5b60006114478582860161140d565b92505060206114588582860161140d565b9150509250929050565b600080fd5b600080fd5b6000601f19601f8301169050919050565b7f4e487b7100000000000000000000000000000000000000000000000000000000600052604160045260246000fd5b6114b58261146c565b810181811067ffffffffffffffff821117156114d4576114d361147d565b5b80604052505050565b60006114e76112f5565b90506114f382826114ac565b919050565b600067ffffffffffffffff8211156115135761151261147d565b5b61151c8261146c565b9050602081019050919050565b82818337600083830152505050565b600061154b611546846114f8565b6114dd565b90508281526020810184848401111561156757611566611467565b5b611572848285611529565b509392505050565b600082601f83011261158f5761158e611462565b5b813561159f848260208601611538565b91505092915050565b600080604083850312156115bf576115be6112ff565b5b60006115cd8582860161140d565b925050602083013567ffffffffffffffff8111156115ee576115ed611304565b5b6115fa8582860161157a565b9150509250929050565b6000819050919050565b61161781611604565b82525050565b6000602082019050611632600083018461160e565b92915050565b600080fd5b600060a0828403121561165357611652611638565b5b81905092915050565b600060208284031215611672576116716112ff565b5b600082013567ffffffffffffffff8111156116905761168f611304565b5b61169c8482850161163d565b91505092915050565b6116ae816113e4565b82525050565b60006020820190506116c960008301846116a5565b92915050565b600081519050919050565b600082825260208201905092915050565b60005b838110156117095780820151818401526020810190506116ee565b60008484015250505050565b6000611720826116cf565b61172a81856116da565b935061173a8185602086016116eb565b6117438161146c565b840191505092915050565b600060208201905081810360008301526117688184611715565b905092915050565b600060208284031215611786576117856112ff565b5b60006117948482850161140d565b91505092915050565b6000819050919050565b6117b08161179d565b82525050565b60006040820190506117cb60008301856117a7565b6117d860208301846117a7565b9392505050565b6000819050919050565b600067ffffffffffffffff82169050919050565b6000819050919050565b600061182261181d611818846117df565b6117fd565b6117e9565b9050919050565b61183281611807565b82525050565b600060208201905061184d6000830184611829565b92915050565b600080fd5b600080fd5b61186681611604565b811461187157600080fd5b50565b6000813590506118838161185d565b92915050565b611892816117e9565b811461189d57600080fd5b50565b6000813590506118af81611889565b92915050565b600067ffffffffffffffff8211156118d0576118cf61147d565b5b602082029050602081019050919050565b600080fd5b6118ef8161179d565b81146118fa57600080fd5b50565b60008135905061190c816118e6565b92915050565b60006040828403121561192857611927611853565b5b61193260406114dd565b905060006119428482850161140d565b6000830152506020611956848285016118fd565b60208301525092915050565b6000611975611970846118b5565b6114dd565b90508083825260208201905060408402830185811115611998576119976118e1565b5b835b818110156119c157806119ad8882611912565b84526020840193505060408101905061199a565b5050509392505050565b600082601f8301126119e0576119df611462565b5b81356119f0848260208601611962565b91505092915050565b600060a08284031215611a0f57611a0e611853565b5b611a1960a06114dd565b90506000611a2984828501611874565b6000830152506020611a3d848285016118a0565b602083015250604082013567ffffffffffffffff811115611a6157611a60611858565b5b611a6d8482850161157a565b604083015250606082013567ffffffffffffffff811115611a9157611a90611858565b5b611a9d8482850161157a565b606083015250608082013567ffffffffffffffff811115611ac157611ac0611858565b5b611acd848285016119cb565b60808301525092915050565b6000611ae536836119f9565b9050919050565b600081519050611afb8161185d565b92915050565b600060208284031215611b1757611b166112ff565b5b6000611b2584828501611aec565b91505092915050565b600081519050611b3d816118e6565b92915050565b60008060408385031215611b5a57611b596112ff565b5b6000611b6885828601611b2e565b9250506020611b7985828601611b2e565b9150509250929050565b7f4e487b7100000000000000000000000000000000000000000000000000000000600052601160045260246000fd5b6000611bbd8261179d565b9150611bc88361179d565b9250828201905080821115611be057611bdf611b83565b5b92915050565b6000611bf18261179d565b9150611bfc8361179d565b9250828203905081811115611c1457611c13611b83565b5b92915050565b600060a082019050611c2f60008301886117a7565b611c3c60208301876117a7565b611c4960408301866117a7565b611c5660608301856117a7565b611c6360808301846117a7565b9695505050505050565b600081519050919050565b600081905092915050565b6000611c8e82611c6d565b611c988185611c78565b9350611ca88185602086016116eb565b80840191505092915050565b6000611cc08284611c83565b91508190509291505056fea26469706673582212203ad61cccf6d4bb8bc377efa9b5d33eb69728295683c2e8e9ff4690b4b112f25164736f6c63430008190033",
  "devdoc": {
    "errors": {
      "AddressEmptyCode(address)": [
        {
          "details": "There's no code at `target` (it is not a contract)."
        }
      ],
      "ERC1967InvalidImplementation(address)": [
        {
          "details": "The `implementation` of the proxy is invalid."
        }
      ],
      "ERC1967NonPayable()": [
        {
          "details": "An upgrade function sees `msg.value > 0` that may be lost."
        }
      ],
      "FailedInnerCall()": [
        {
          "details": "A call to an address target failed. The target may have reverted."
        }
      ],
      "InvalidInitialization()": [
        {
          "details": "The contract is already initialized."
        }
      ],
      "NotInitializing()": [
        {
          "details": "The contract is not initializing."
        }
      ],
      "OwnableInvalidOwner(address)": [
        {
          "details": "The owner is not a valid owner account. (eg. `address(0)`)"
        }
      ],
      "OwnableUnauthorizedAccount(address)": [
        {
          "details": "The caller account is not authorized to perform an operation."
        }
      ],
      "UUPSUnauthorizedCallContext()": [
        {
          "details": "The call is from an unauthorized context."
        }
      ],
      "UUPSUnsupportedProxiableUUID(bytes32)": [
        {
          "details": "The storage `slot` is unsupported as a UUID."
        }
      ]
    },
    "events": {
      "Initialized(uint64)": {
        "details": "Triggered when the contract has been initialized or reinitialized."
      },
      "Upgraded(address)": {
        "details": "Emitted when the implementation is upgraded."
      }
    },
    "kind": "dev",
    "methods": {
      "acceptOwnership()": {
        "details": "The new owner accepts the ownership transfer."
      },
      "ccipReceive((bytes32,uint64,bytes,bytes,(address,uint256)[]))": {
        "details": "Note ensure you check the msg.sender is the OffRampRouter",
        "params": {
          "message": "CCIP Message"
        }
      },
      "getRouter()": {
        "returns": {
          "_0": "CCIP router address"
        }
      },
      "owner()": {
        "details": "Returns the address of the current owner."
      },
      "pendingOwner()": {
        "details": "Returns the address of the pending owner."
      },
      "proxiableUUID()": {
        "details": "Implementation of the ERC1822 {proxiableUUID} function. This returns the storage slot used by the implementation. It is used to validate the implementation's compatibility when performing an upgrade. IMPORTANT: A proxy pointing at a proxiable contract should not be considered proxiable itself, because this risks bricking a proxy that upgrades to it, by delegating to itself until out of gas. Thus it is critical that this function revert if invoked through a proxy. This is guaranteed by the `notDelegated` modifier."
      },
      "renounceOwnership()": {
        "details": "Leaves the contract without owner. It will not be possible to call `onlyOwner` functions. Can only be called by the current owner. NOTE: Renouncing ownership will leave the contract without an owner, thereby disabling any functionality that is only available to the owner."
      },
      "supportsInterface(bytes4)": {
        "details": "Should indicate whether the contract implements IAny2EVMMessageReceiver e.g. return interfaceId == type(IAny2EVMMessageReceiver).interfaceId || interfaceId == type(IERC165).interfaceId This allows CCIP to check if ccipReceive is available before calling it. If this returns false or reverts, only tokens are transferred to the receiver. If this returns true, tokens are transferred and ccipReceive is called atomically. Additionally, if the receiver address does not have code associated with it at the time of execution (EXTCODESIZE returns 0), only tokens will be transferred.",
        "params": {
          "interfaceId": "The interfaceId to check"
        },
        "returns": {
          "_0": "true if the interfaceId is supported"
        }
      },
      "transferOwnership(address)": {
        "details": "Starts the ownership transfer of the contract to a new account. Replaces the pending transfer if there is one. Can only be called by the current owner."
      },
      "upgradeToAndCall(address,bytes)": {
        "custom:oz-upgrades-unsafe-allow-reachable": "delegatecall",
        "details": "Upgrade the implementation of the proxy to `newImplementation`, and subsequently execute the function call encoded in `data`. Calls {_authorizeUpgrade}. Emits an {Upgraded} event."
      }
    },
    "version": 1
  },
  "userdoc": {
    "kind": "user",
    "methods": {
      "ccipReceive((bytes32,uint64,bytes,bytes,(address,uint256)[]))": {
        "notice": "Called by the Router to deliver a message. If this reverts, any token transfers also revert. The message will move to a FAILED state and become available for manual execution."
      },
      "getRouter()": {
        "notice": "Return the current router"
      },
      "supportsInterface(bytes4)": {
        "notice": "IERC165 supports an interfaceId"
      }
    },
    "version": 1
  },
  "storageLayout": {
    "storage": [],
    "types": null
  }
}